{
  "transactions": [
    {
      "hash": "0x05a95d41cd323ebb51d48e210f0c5df2533f0032ee055580cf0dcc1aa91d534e",
      "transactionType": "CALL",
      "contractName": null,
      "contractAddress": "0x2246008845d7385a7c5c9dacea09a36823fbcb88",
      "function": "mint(address,uint256)",
      "arguments": [
        "0x610d7b11fB07F9B142c392a3649Aa50Dc4C9a528",
        "1000000000"
      ],
      "transaction": {
        "from": "0x610d7b11fb07f9b142c392a3649aa50dc4c9a528",
        "to": "0x2246008845d7385a7c5c9dacea09a36823fbcb88",
        "gas": "0x131f2",
        "value": "0x0",
        "input": "0x40c10f19000000000000000000000000610d7b11fb07f9b142c392a3649aa50dc4c9a528000000000000000000000000000000000000000000000000000000003b9aca00",
        "nonce": "0xe4",
        "chainId": "0xaa36a7"
      },
      "additionalContracts": [],
      "isFixedGasLimit": false
    },
    {
      "hash": "0x9d5d10fe2394d10641d44882a3f097f90068116f77d67aa2af88974bdfc52b76",
      "transactionType": "CALL",
      "contractName": null,
      "contractAddress": "0x2246008845d7385a7c5c9dacea09a36823fbcb88",
      "function": "approve(address,uint256)",
      "arguments": [
        "0xcc2149eeca0B6Bb7228E7A651987ebB064276463",
        "1000000000"
      ],
      "transaction": {
        "from": "0x610d7b11fb07f9b142c392a3649aa50dc4c9a528",
        "to": "0x2246008845d7385a7c5c9dacea09a36823fbcb88",
        "gas": "0x108ad",
        "value": "0x0",
        "input": "0x095ea7b3000000000000000000000000cc2149eeca0b6bb7228e7a651987ebb064276463000000000000000000000000000000000000000000000000000000003b9aca00",
        "nonce": "0xe5",
        "chainId": "0xaa36a7"
      },
      "additionalContracts": [],
      "isFixedGasLimit": false
    },
    {
      "hash": "0x72185935c73bbdf05287ccb9437bf33c3d74a838d6cbca43c383aedc43fe77b9",
      "transactionType": "CALL",
      "contractName": null,
      "contractAddress": "0xcc2149eeca0b6bb7228e7a651987ebb064276463",
      "function": "createStream(string,address,address,uint256,uint256,uint256)",
      "arguments": [
        "ended-stream-001",
        "0x597b049EEe57889b5942d0fFAc476ED78A9296BA",
        "0x2246008845d7385a7C5c9dacea09A36823FbcB88",
        "1000000000",
        "604800",
        "86400"
      ],
      "transaction": {
        "from": "0x610d7b11fb07f9b142c392a3649aa50dc4c9a528",
        "to": "0xcc2149eeca0b6bb7228e7a651987ebb064276463",
        "gas": "0x7b5d4",
        "value": "0x0",
        "input": "0x3e2436d600000000000000000000000000000000000000000000000000000000000000c0000000000000000000000000597b049eee57889b5942d0ffac476ed78a9296ba0000000000000000000000002246008845d7385a7c5c9dacea09a36823fbcb88000000000000000000000000000000000000000000000000000000003b9aca000000000000000000000000000000000000000000000000000000000000093a8000000000000000000000000000000000000000000000000000000000000151800000000000000000000000000000000000000000000000000000000000000010656e6465642d73747265616d2d30303100000000000000000000000000000000",
        "nonce": "0xe6",
        "chainId": "0xaa36a7"
      },
      "additionalContracts": [],
      "isFixedGasLimit": false
    },
    {
      "hash": "0x10241d9668aa97a2c9cfbbea76b1da5becd384d60ba5bbc17fb0fb9f1bffc252",
      "transactionType": "CALL",
      "contractName": null,
      "contractAddress": "0xcc2149eeca0b6bb7228e7a651987ebb064276463",
      "function": "mockSetTimestamp(uint256)",
      "arguments": [
        "1758457584"
      ],
      "transaction": {
        "from": "0x610d7b11fb07f9b142c392a3649aa50dc4c9a528",
        "to": "0xcc2149eeca0b6bb7228e7a651987ebb064276463",
        "gas": "0x18420",
        "value": "0x0",
        "input": "0x6958839e0000000000000000000000000000000000000000000000000000000068cfeef0",
        "nonce": "0xe7",
        "chainId": "0xaa36a7"
      },
      "additionalContracts": [],
      "isFixedGasLimit": false
    },
    {
      "hash": "0x53115a0b94ce9eb7b4b2770bedf0cf2bee96ad061baa4ebdf81ab8ffb945c9b2",
      "transactionType": "CALL",
      "contractName": null,
      "contractAddress": "0xcc2149eeca0b6bb7228e7a651987ebb064276463",
      "function": "mockResetTimestamp()",
      "arguments": [],
      "transaction": {
        "from": "0x610d7b11fb07f9b142c392a3649aa50dc4c9a528",
        "to": "0xcc2149eeca0b6bb7228e7a651987ebb064276463",
        "gas": "0x909e",
        "value": "0x0",
        "input": "0x7a85359d",
        "nonce": "0xe8",
        "chainId": "0xaa36a7"
      },
      "additionalContracts": [],
      "isFixedGasLimit": false
    }
  ],
  "receipts": [
    {
      "status": "0x1",
      "cumulativeGasUsed": "0xf3bfa5",
      "logs": [
        {
          "address": "0x2246008845d7385a7c5c9dacea09a36823fbcb88",
          "topics": [
            "0xddf252ad1be2c89b69c2b068fc378daa952ba7f163c4a11628f55a4df523b3ef",
            "0x0000000000000000000000000000000000000000000000000000000000000000",
            "0x000000000000000000000000610d7b11fb07f9b142c392a3649aa50dc4c9a528"
          ],
          "data": "0x000000000000000000000000000000000000000000000000000000003b9aca00",
          "blockHash": "0xabaaf616f004ebcff419c31680c8e0c1412e284373859bd9a6335498be415009",
          "blockNumber": "0x8c4e7b",
          "blockTimestamp": "0x68c56314",
          "transactionHash": "0x05a95d41cd323ebb51d48e210f0c5df2533f0032ee055580cf0dcc1aa91d534e",
          "transactionIndex": "0x4d",
          "logIndex": "0x84",
          "removed": false
        }
      ],
      "logsBloom": "0x00000000000000000000000000000000000000000000000000000000001000000000000000000000001000000000000000000000000000000000000000000000200000000000000000000008000000000000000000000000000000000000000080000000020000000000000000000800000000000000000000000010000000000000000000000000000000000000000000000000000000000000000000000000000000000000000000000000000000000000000000000000000000000000000000000002000000000000000000000000000000000400000000000000000020000000000000001000000000000000000000000000000000000000000000000000",
      "type": "0x2",
      "transactionHash": "0x05a95d41cd323ebb51d48e210f0c5df2533f0032ee055580cf0dcc1aa91d534e",
      "transactionIndex": "0x4d",
      "blockHash": "0xabaaf616f004ebcff419c31680c8e0c1412e284373859bd9a6335498be415009",
      "blockNumber": "0x8c4e7b",
      "gasUsed": "0xd132",
      "effectiveGasPrice": "0x37a79d7",
      "from": "0x610d7b11fb07f9b142c392a3649aa50dc4c9a528",
      "to": "0x2246008845d7385a7c5c9dacea09a36823fbcb88",
      "contractAddress": null
    },
    {
      "status": "0x1",
      "cumulativeGasUsed": "0xf4749f",
      "logs": [
        {
          "address": "0x2246008845d7385a7c5c9dacea09a36823fbcb88",
          "topics": [
            "0x8c5be1e5ebec7d5bd14f71427d1e84f3dd0314c0f7b2291e5b200ac8c7c3b925",
            "0x000000000000000000000000610d7b11fb07f9b142c392a3649aa50dc4c9a528",
            "0x000000000000000000000000cc2149eeca0b6bb7228e7a651987ebb064276463"
          ],
          "data": "0x000000000000000000000000000000000000000000000000000000003b9aca00",
          "blockHash": "0xabaaf616f004ebcff419c31680c8e0c1412e284373859bd9a6335498be415009",
          "blockNumber": "0x8c4e7b",
          "blockTimestamp": "0x68c56314",
          "transactionHash": "0x9d5d10fe2394d10641d44882a3f097f90068116f77d67aa2af88974bdfc52b76",
          "transactionIndex": "0x4e",
          "logIndex": "0x85",
          "removed": false
        }
      ],
      "logsBloom": "0x00000000000000000000000000000000000000000000000800000000001000000000000000000000001000000000000000000000000000000000000000200000200000000000000000000000000000000000000000000002000000000000000080000000000000000000000000000000000000400000000000000000000000000000000000000000000000000000000000000000000000000000000000000000020000000000000000000000000000000000000000000000000000000000000000000000000000000000000000000000000000000400000000000000000000000010000000001000000000000000000000000000000000000000000000000000",
      "type": "0x2",
      "transactionHash": "0x9d5d10fe2394d10641d44882a3f097f90068116f77d67aa2af88974bdfc52b76",
      "transactionIndex": "0x4e",
      "blockHash": "0xabaaf616f004ebcff419c31680c8e0c1412e284373859bd9a6335498be415009",
      "blockNumber": "0x8c4e7b",
      "gasUsed": "0xb4fa",
      "effectiveGasPrice": "0x37a79d7",
      "from": "0x610d7b11fb07f9b142c392a3649aa50dc4c9a528",
      "to": "0x2246008845d7385a7c5c9dacea09a36823fbcb88",
      "contractAddress": null
    },
    {
      "status": "0x1",
      "cumulativeGasUsed": "0xfa09a4",
      "logs": [
        {
          "address": "0x2246008845d7385a7c5c9dacea09a36823fbcb88",
          "topics": [
            "0xddf252ad1be2c89b69c2b068fc378daa952ba7f163c4a11628f55a4df523b3ef",
            "0x000000000000000000000000610d7b11fb07f9b142c392a3649aa50dc4c9a528",
            "0x000000000000000000000000cc2149eeca0b6bb7228e7a651987ebb064276463"
          ],
          "data": "0x000000000000000000000000000000000000000000000000000000003b9aca00",
          "blockHash": "0xabaaf616f004ebcff419c31680c8e0c1412e284373859bd9a6335498be415009",
          "blockNumber": "0x8c4e7b",
          "blockTimestamp": "0x68c56314",
          "transactionHash": "0x72185935c73bbdf05287ccb9437bf33c3d74a838d6cbca43c383aedc43fe77b9",
          "transactionIndex": "0x4f",
          "logIndex": "0x86",
          "removed": false
        },
        {
          "address": "0xcc2149eeca0b6bb7228e7a651987ebb064276463",
          "topics": [
            "0x906969e50f050bb64df1fbdebaba959249f79c7ed4e322ecece97f4790efb568",
            "0x524c5485ff375f7b12ac72f3bf1def643b32d746d59e62f47904a2fa7d2a08a4",
            "0x000000000000000000000000610d7b11fb07f9b142c392a3649aa50dc4c9a528",
            "0x000000000000000000000000597b049eee57889b5942d0ffac476ed78a9296ba"
          ],
          "data": "0x",
          "blockHash": "0xabaaf616f004ebcff419c31680c8e0c1412e284373859bd9a6335498be415009",
          "blockNumber": "0x8c4e7b",
          "blockTimestamp": "0x68c56314",
          "transactionHash": "0x72185935c73bbdf05287ccb9437bf33c3d74a838d6cbca43c383aedc43fe77b9",
          "transactionIndex": "0x4f",
          "logIndex": "0x87",
          "removed": false
        }
      ],
      "logsBloom": "0x00000000000000000000002000000000000000000000000800000000001000000200000000000000001000000000080000010000000000000000000000000000200000000000000000000008000200000000000000000002000000000000000080000000000000000000000000000000200000400000000000000010000040002000000000000000000000000000000000000000000000000000011000000008000000000000000000000000000000000000000000000000000000000000000000000002000000000000000000000000000000000400000000000000000000000000000000001000000000000000000000000000000000000010000000000000",
      "type": "0x2",
      "transactionHash": "0x72185935c73bbdf05287ccb9437bf33c3d74a838d6cbca43c383aedc43fe77b9",
      "transactionIndex": "0x4f",
      "blockHash": "0xabaaf616f004ebcff419c31680c8e0c1412e284373859bd9a6335498be415009",
      "blockNumber": "0x8c4e7b",
      "gasUsed": "0x59505",
      "effectiveGasPrice": "0x37a79d7",
      "from": "0x610d7b11fb07f9b142c392a3649aa50dc4c9a528",
      "to": "0xcc2149eeca0b6bb7228e7a651987ebb064276463",
      "contractAddress": null
    },
    {
      "status": "0x1",
      "cumulativeGasUsed": "0xfb1307",
      "logs": [],
      "logsBloom": "0x00000000000000000000000000000000000000000000000000000000000000000000000000000000000000000000000000000000000000000000000000000000000000000000000000000000000000000000000000000000000000000000000000000000000000000000000000000000000000000000000000000000000000000000000000000000000000000000000000000000000000000000000000000000000000000000000000000000000000000000000000000000000000000000000000000000000000000000000000000000000000000000000000000000000000000000000000000000000000000000000000000000000000000000000000000000",
      "type": "0x2",
      "transactionHash": "0x10241d9668aa97a2c9cfbbea76b1da5becd384d60ba5bbc17fb0fb9f1bffc252",
      "transactionIndex": "0x50",
      "blockHash": "0xabaaf616f004ebcff419c31680c8e0c1412e284373859bd9a6335498be415009",
      "blockNumber": "0x8c4e7b",
      "gasUsed": "0x10963",
      "effectiveGasPrice": "0x37a79d7",
      "from": "0x610d7b11fb07f9b142c392a3649aa50dc4c9a528",
      "to": "0xcc2149eeca0b6bb7228e7a651987ebb064276463",
      "contractAddress": null
    },
    {
      "status": "0x1",
      "cumulativeGasUsed": "0xfb7bbb",
      "logs": [],
      "logsBloom": "0x00000000000000000000000000000000000000000000000000000000000000000000000000000000000000000000000000000000000000000000000000000000000000000000000000000000000000000000000000000000000000000000000000000000000000000000000000000000000000000000000000000000000000000000000000000000000000000000000000000000000000000000000000000000000000000000000000000000000000000000000000000000000000000000000000000000000000000000000000000000000000000000000000000000000000000000000000000000000000000000000000000000000000000000000000000000",
      "type": "0x2",
      "transactionHash": "0x53115a0b94ce9eb7b4b2770bedf0cf2bee96ad061baa4ebdf81ab8ffb945c9b2",
      "transactionIndex": "0x51",
      "blockHash": "0xabaaf616f004ebcff419c31680c8e0c1412e284373859bd9a6335498be415009",
      "blockNumber": "0x8c4e7b",
      "gasUsed": "0x68b4",
      "effectiveGasPrice": "0x37a79d7",
      "from": "0x610d7b11fb07f9b142c392a3649aa50dc4c9a528",
      "to": "0xcc2149eeca0b6bb7228e7a651987ebb064276463",
      "contractAddress": null
    }
  ],
  "libraries": [],
  "pending": [],
  "returns": {},
  "timestamp": 1757766420039,
  "chain": 11155111,
  "commit": "03e36b1"
}