{
  "transactions": [
    {
      "hash": "0x1aaae428dc1a17ddb55b6779643c5523ddf2d78e597ebe00806045f6c8528d65",
      "transactionType": "CREATE",
      "contractName": "MockERC20",
      "contractAddress": "0x9814afb94bf47e3dbe1ba98fcb8171879462e31d",
      "function": null,
      "arguments": [
        "Mock USD Coin",
        "USDC",
        "6"
      ],
      "transaction": {
        "from": "0x610d7b11fb07f9b142c392a3649aa50dc4c9a528",
        "gas": "0xc135c",
        "value": "0x0",
        "input": "0x608060405234801561000f575f5ffd5b50604051610be2380380610be283398101604081905261002e91610198565b338383600361003d8382610299565b50600461004a8282610299565b5050506001600160a01b03811661007a57604051631e4fbdf760e01b81525f600482015260240160405180910390fd5b610083816100aa565b506005805460ff909216600160a01b0260ff60a01b19909216919091179055506103539050565b600580546001600160a01b038381166001600160a01b0319831681179093556040519116919082907f8be0079c531659141344cd1fd0a4f28419497f9722a3daafe3b4186f6b6457e0905f90a35050565b634e487b7160e01b5f52604160045260245ffd5b5f82601f83011261011e575f5ffd5b81516001600160401b03811115610137576101376100fb565b604051601f8201601f19908116603f011681016001600160401b0381118282101715610165576101656100fb565b60405281815283820160200185101561017c575f5ffd5b8160208501602083015e5f918101602001919091529392505050565b5f5f5f606084860312156101aa575f5ffd5b83516001600160401b038111156101bf575f5ffd5b6101cb8682870161010f565b602086015190945090506001600160401b038111156101e8575f5ffd5b6101f48682870161010f565b925050604084015160ff8116811461020a575f5ffd5b809150509250925092565b600181811c9082168061022957607f821691505b60208210810361024757634e487b7160e01b5f52602260045260245ffd5b50919050565b601f82111561029457805f5260205f20601f840160051c810160208510156102725750805b601f840160051c820191505b81811015610291575f815560010161027e565b50505b505050565b81516001600160401b038111156102b2576102b26100fb565b6102c6816102c08454610215565b8461024d565b6020601f8211600181146102f8575f83156102e15750848201515b5f19600385901b1c1916600184901b178455610291565b5f84815260208120601f198516915b828110156103275787850151825560209485019460019092019101610307565b508482101561034457868401515f19600387901b60f8161c191681555b50505050600190811b01905550565b610882806103605f395ff3fe608060405234801561000f575f5ffd5b50600436106100cb575f3560e01c806370a082311161008857806395d89b411161006357806395d89b41146101a4578063a9059cbb146101ac578063dd62ed3e146101bf578063f2fde38b146101f7575f5ffd5b806370a0823114610159578063715018a6146101815780638da5cb5b14610189575f5ffd5b806306fdde03146100cf578063095ea7b3146100ed57806318160ddd1461011057806323b872dd14610122578063313ce5671461013557806340c10f1914610144575b5f5ffd5b6100d761020a565b6040516100e491906106f2565b60405180910390f35b6101006100fb366004610742565b61029a565b60405190151581526020016100e4565b6002545b6040519081526020016100e4565b61010061013036600461076a565b6102b3565b604051601281526020016100e4565b610157610152366004610742565b6102d6565b005b6101146101673660046107a4565b6001600160a01b03165f9081526020819052604090205490565b6101576102ec565b6005546040516001600160a01b0390911681526020016100e4565b6100d76102ff565b6101006101ba366004610742565b61030e565b6101146101cd3660046107c4565b6001600160a01b039182165f90815260016020908152604080832093909416825291909152205490565b6101576102053660046107a4565b61031b565b606060038054610219906107f5565b80601f0160208091040260200160405190810160405280929190818152602001828054610245906107f5565b80156102905780601f1061026757610100808354040283529160200191610290565b820191905f5260205f20905b81548152906001019060200180831161027357829003601f168201915b5050505050905090565b5f336102a781858561035d565b60019150505b92915050565b5f336102c085828561036f565b6102cb8585856103eb565b506001949350505050565b6102de610448565b6102e88282610475565b5050565b6102f4610448565b6102fd5f6104a9565b565b606060048054610219906107f5565b5f336102a78185856103eb565b610323610448565b6001600160a01b03811661035157604051631e4fbdf760e01b81525f60048201526024015b60405180910390fd5b61035a816104a9565b50565b61036a83838360016104fa565b505050565b6001600160a01b038381165f908152600160209081526040808320938616835292905220545f198110156103e557818110156103d757604051637dc7a0d960e11b81526001600160a01b03841660048201526024810182905260448101839052606401610348565b6103e584848484035f6104fa565b50505050565b6001600160a01b03831661041457604051634b637e8f60e11b81525f6004820152602401610348565b6001600160a01b03821661043d5760405163ec442f0560e01b81525f6004820152602401610348565b61036a8383836105cc565b6005546001600160a01b031633146102fd5760405163118cdaa760e01b8152336004820152602401610348565b6001600160a01b03821661049e5760405163ec442f0560e01b81525f6004820152602401610348565b6102e85f83836105cc565b600580546001600160a01b038381166001600160a01b0319831681179093556040519116919082907f8be0079c531659141344cd1fd0a4f28419497f9722a3daafe3b4186f6b6457e0905f90a35050565b6001600160a01b0384166105235760405163e602df0560e01b81525f6004820152602401610348565b6001600160a01b03831661054c57604051634a1406b160e11b81525f6004820152602401610348565b6001600160a01b038085165f90815260016020908152604080832093871683529290522082905580156103e557826001600160a01b0316846001600160a01b03167f8c5be1e5ebec7d5bd14f71427d1e84f3dd0314c0f7b2291e5b200ac8c7c3b925846040516105be91815260200190565b60405180910390a350505050565b6001600160a01b0383166105f6578060025f8282546105eb919061082d565b909155506106669050565b6001600160a01b0383165f90815260208190526040902054818110156106485760405163391434e360e21b81526001600160a01b03851660048201526024810182905260448101839052606401610348565b6001600160a01b0384165f9081526020819052604090209082900390555b6001600160a01b038216610682576002805482900390556106a0565b6001600160a01b0382165f9081526020819052604090208054820190555b816001600160a01b0316836001600160a01b03167fddf252ad1be2c89b69c2b068fc378daa952ba7f163c4a11628f55a4df523b3ef836040516106e591815260200190565b60405180910390a3505050565b602081525f82518060208401528060208501604085015e5f604082850101526040601f19601f83011684010191505092915050565b80356001600160a01b038116811461073d575f5ffd5b919050565b5f5f60408385031215610753575f5ffd5b61075c83610727565b946020939093013593505050565b5f5f5f6060848603121561077c575f5ffd5b61078584610727565b925061079360208501610727565b929592945050506040919091013590565b5f602082840312156107b4575f5ffd5b6107bd82610727565b9392505050565b5f5f604083850312156107d5575f5ffd5b6107de83610727565b91506107ec60208401610727565b90509250929050565b600181811c9082168061080957607f821691505b60208210810361082757634e487b7160e01b5f52602260045260245ffd5b50919050565b808201808211156102ad57634e487b7160e01b5f52601160045260245ffdfea26469706673582212208eaafbd08505f74272322158b5a7e5e93743c78af0e014a2c7070e782bb6ff7264736f6c634300081e0033000000000000000000000000000000000000000000000000000000000000006000000000000000000000000000000000000000000000000000000000000000a00000000000000000000000000000000000000000000000000000000000000006000000000000000000000000000000000000000000000000000000000000000d4d6f636b2055534420436f696e0000000000000000000000000000000000000000000000000000000000000000000000000000000000000000000000000000045553444300000000000000000000000000000000000000000000000000000000",
        "nonce": "0xd2",
        "chainId": "0xaa36a7"
      },
      "additionalContracts": [],
      "isFixedGasLimit": false
    },
    {
      "hash": "0x2c06f40300cdc0cb084ea283d5426e3daed0379af3d17358c1b5a86b6977e907",
      "transactionType": "CREATE",
      "contractName": "MockERC20",
      "contractAddress": "0x5ed3dd9c10a8e23664941bdb882e001c7ef11a45",
      "function": null,
      "arguments": [
        "Mock Wrapped Ether",
        "WETH",
        "18"
      ],
      "transaction": {
        "from": "0x610d7b11fb07f9b142c392a3649aa50dc4c9a528",
        "gas": "0xc13aa",
        "value": "0x0",
        "input": "0x608060405234801561000f575f5ffd5b50604051610be2380380610be283398101604081905261002e91610198565b338383600361003d8382610299565b50600461004a8282610299565b5050506001600160a01b03811661007a57604051631e4fbdf760e01b81525f600482015260240160405180910390fd5b610083816100aa565b506005805460ff909216600160a01b0260ff60a01b19909216919091179055506103539050565b600580546001600160a01b038381166001600160a01b0319831681179093556040519116919082907f8be0079c531659141344cd1fd0a4f28419497f9722a3daafe3b4186f6b6457e0905f90a35050565b634e487b7160e01b5f52604160045260245ffd5b5f82601f83011261011e575f5ffd5b81516001600160401b03811115610137576101376100fb565b604051601f8201601f19908116603f011681016001600160401b0381118282101715610165576101656100fb565b60405281815283820160200185101561017c575f5ffd5b8160208501602083015e5f918101602001919091529392505050565b5f5f5f606084860312156101aa575f5ffd5b83516001600160401b038111156101bf575f5ffd5b6101cb8682870161010f565b602086015190945090506001600160401b038111156101e8575f5ffd5b6101f48682870161010f565b925050604084015160ff8116811461020a575f5ffd5b809150509250925092565b600181811c9082168061022957607f821691505b60208210810361024757634e487b7160e01b5f52602260045260245ffd5b50919050565b601f82111561029457805f5260205f20601f840160051c810160208510156102725750805b601f840160051c820191505b81811015610291575f815560010161027e565b50505b505050565b81516001600160401b038111156102b2576102b26100fb565b6102c6816102c08454610215565b8461024d565b6020601f8211600181146102f8575f83156102e15750848201515b5f19600385901b1c1916600184901b178455610291565b5f84815260208120601f198516915b828110156103275787850151825560209485019460019092019101610307565b508482101561034457868401515f19600387901b60f8161c191681555b50505050600190811b01905550565b610882806103605f395ff3fe608060405234801561000f575f5ffd5b50600436106100cb575f3560e01c806370a082311161008857806395d89b411161006357806395d89b41146101a4578063a9059cbb146101ac578063dd62ed3e146101bf578063f2fde38b146101f7575f5ffd5b806370a0823114610159578063715018a6146101815780638da5cb5b14610189575f5ffd5b806306fdde03146100cf578063095ea7b3146100ed57806318160ddd1461011057806323b872dd14610122578063313ce5671461013557806340c10f1914610144575b5f5ffd5b6100d761020a565b6040516100e491906106f2565b60405180910390f35b6101006100fb366004610742565b61029a565b60405190151581526020016100e4565b6002545b6040519081526020016100e4565b61010061013036600461076a565b6102b3565b604051601281526020016100e4565b610157610152366004610742565b6102d6565b005b6101146101673660046107a4565b6001600160a01b03165f9081526020819052604090205490565b6101576102ec565b6005546040516001600160a01b0390911681526020016100e4565b6100d76102ff565b6101006101ba366004610742565b61030e565b6101146101cd3660046107c4565b6001600160a01b039182165f90815260016020908152604080832093909416825291909152205490565b6101576102053660046107a4565b61031b565b606060038054610219906107f5565b80601f0160208091040260200160405190810160405280929190818152602001828054610245906107f5565b80156102905780601f1061026757610100808354040283529160200191610290565b820191905f5260205f20905b81548152906001019060200180831161027357829003601f168201915b5050505050905090565b5f336102a781858561035d565b60019150505b92915050565b5f336102c085828561036f565b6102cb8585856103eb565b506001949350505050565b6102de610448565b6102e88282610475565b5050565b6102f4610448565b6102fd5f6104a9565b565b606060048054610219906107f5565b5f336102a78185856103eb565b610323610448565b6001600160a01b03811661035157604051631e4fbdf760e01b81525f60048201526024015b60405180910390fd5b61035a816104a9565b50565b61036a83838360016104fa565b505050565b6001600160a01b038381165f908152600160209081526040808320938616835292905220545f198110156103e557818110156103d757604051637dc7a0d960e11b81526001600160a01b03841660048201526024810182905260448101839052606401610348565b6103e584848484035f6104fa565b50505050565b6001600160a01b03831661041457604051634b637e8f60e11b81525f6004820152602401610348565b6001600160a01b03821661043d5760405163ec442f0560e01b81525f6004820152602401610348565b61036a8383836105cc565b6005546001600160a01b031633146102fd5760405163118cdaa760e01b8152336004820152602401610348565b6001600160a01b03821661049e5760405163ec442f0560e01b81525f6004820152602401610348565b6102e85f83836105cc565b600580546001600160a01b038381166001600160a01b0319831681179093556040519116919082907f8be0079c531659141344cd1fd0a4f28419497f9722a3daafe3b4186f6b6457e0905f90a35050565b6001600160a01b0384166105235760405163e602df0560e01b81525f6004820152602401610348565b6001600160a01b03831661054c57604051634a1406b160e11b81525f6004820152602401610348565b6001600160a01b038085165f90815260016020908152604080832093871683529290522082905580156103e557826001600160a01b0316846001600160a01b03167f8c5be1e5ebec7d5bd14f71427d1e84f3dd0314c0f7b2291e5b200ac8c7c3b925846040516105be91815260200190565b60405180910390a350505050565b6001600160a01b0383166105f6578060025f8282546105eb919061082d565b909155506106669050565b6001600160a01b0383165f90815260208190526040902054818110156106485760405163391434e360e21b81526001600160a01b03851660048201526024810182905260448101839052606401610348565b6001600160a01b0384165f9081526020819052604090209082900390555b6001600160a01b038216610682576002805482900390556106a0565b6001600160a01b0382165f9081526020819052604090208054820190555b816001600160a01b0316836001600160a01b03167fddf252ad1be2c89b69c2b068fc378daa952ba7f163c4a11628f55a4df523b3ef836040516106e591815260200190565b60405180910390a3505050565b602081525f82518060208401528060208501604085015e5f604082850101526040601f19601f83011684010191505092915050565b80356001600160a01b038116811461073d575f5ffd5b919050565b5f5f60408385031215610753575f5ffd5b61075c83610727565b946020939093013593505050565b5f5f5f6060848603121561077c575f5ffd5b61078584610727565b925061079360208501610727565b929592945050506040919091013590565b5f602082840312156107b4575f5ffd5b6107bd82610727565b9392505050565b5f5f604083850312156107d5575f5ffd5b6107de83610727565b91506107ec60208401610727565b90509250929050565b600181811c9082168061080957607f821691505b60208210810361082757634e487b7160e01b5f52602260045260245ffd5b50919050565b808201808211156102ad57634e487b7160e01b5f52601160045260245ffdfea26469706673582212208eaafbd08505f74272322158b5a7e5e93743c78af0e014a2c7070e782bb6ff7264736f6c634300081e0033000000000000000000000000000000000000000000000000000000000000006000000000000000000000000000000000000000000000000000000000000000a0000000000000000000000000000000000000000000000000000000000000001200000000000000000000000000000000000000000000000000000000000000124d6f636b2057726170706564204574686572000000000000000000000000000000000000000000000000000000000000000000000000000000000000000000045745544800000000000000000000000000000000000000000000000000000000",
        "nonce": "0xd3",
        "chainId": "0xaa36a7"
      },
      "additionalContracts": [],
      "isFixedGasLimit": false
    },
    {
      "hash": "0x995cbcfd1d596176a54c83452576a043d3eb9e6e518aa487ad25f7fb43fc6d08",
      "transactionType": "CREATE",
      "contractName": "MockERC20",
      "contractAddress": "0x401e4b2cb20dc60c1e36802596e41d6c75579f29",
      "function": null,
      "arguments": [
        "Mock Tether USD",
        "USDT",
        "6"
      ],
      "transaction": {
        "from": "0x610d7b11fb07f9b142c392a3649aa50dc4c9a528",
        "gas": "0xc137b",
        "value": "0x0",
        "input": "0x608060405234801561000f575f5ffd5b50604051610be2380380610be283398101604081905261002e91610198565b338383600361003d8382610299565b50600461004a8282610299565b5050506001600160a01b03811661007a57604051631e4fbdf760e01b81525f600482015260240160405180910390fd5b610083816100aa565b506005805460ff909216600160a01b0260ff60a01b19909216919091179055506103539050565b600580546001600160a01b038381166001600160a01b0319831681179093556040519116919082907f8be0079c531659141344cd1fd0a4f28419497f9722a3daafe3b4186f6b6457e0905f90a35050565b634e487b7160e01b5f52604160045260245ffd5b5f82601f83011261011e575f5ffd5b81516001600160401b03811115610137576101376100fb565b604051601f8201601f19908116603f011681016001600160401b0381118282101715610165576101656100fb565b60405281815283820160200185101561017c575f5ffd5b8160208501602083015e5f918101602001919091529392505050565b5f5f5f606084860312156101aa575f5ffd5b83516001600160401b038111156101bf575f5ffd5b6101cb8682870161010f565b602086015190945090506001600160401b038111156101e8575f5ffd5b6101f48682870161010f565b925050604084015160ff8116811461020a575f5ffd5b809150509250925092565b600181811c9082168061022957607f821691505b60208210810361024757634e487b7160e01b5f52602260045260245ffd5b50919050565b601f82111561029457805f5260205f20601f840160051c810160208510156102725750805b601f840160051c820191505b81811015610291575f815560010161027e565b50505b505050565b81516001600160401b038111156102b2576102b26100fb565b6102c6816102c08454610215565b8461024d565b6020601f8211600181146102f8575f83156102e15750848201515b5f19600385901b1c1916600184901b178455610291565b5f84815260208120601f198516915b828110156103275787850151825560209485019460019092019101610307565b508482101561034457868401515f19600387901b60f8161c191681555b50505050600190811b01905550565b610882806103605f395ff3fe608060405234801561000f575f5ffd5b50600436106100cb575f3560e01c806370a082311161008857806395d89b411161006357806395d89b41146101a4578063a9059cbb146101ac578063dd62ed3e146101bf578063f2fde38b146101f7575f5ffd5b806370a0823114610159578063715018a6146101815780638da5cb5b14610189575f5ffd5b806306fdde03146100cf578063095ea7b3146100ed57806318160ddd1461011057806323b872dd14610122578063313ce5671461013557806340c10f1914610144575b5f5ffd5b6100d761020a565b6040516100e491906106f2565b60405180910390f35b6101006100fb366004610742565b61029a565b60405190151581526020016100e4565b6002545b6040519081526020016100e4565b61010061013036600461076a565b6102b3565b604051601281526020016100e4565b610157610152366004610742565b6102d6565b005b6101146101673660046107a4565b6001600160a01b03165f9081526020819052604090205490565b6101576102ec565b6005546040516001600160a01b0390911681526020016100e4565b6100d76102ff565b6101006101ba366004610742565b61030e565b6101146101cd3660046107c4565b6001600160a01b039182165f90815260016020908152604080832093909416825291909152205490565b6101576102053660046107a4565b61031b565b606060038054610219906107f5565b80601f0160208091040260200160405190810160405280929190818152602001828054610245906107f5565b80156102905780601f1061026757610100808354040283529160200191610290565b820191905f5260205f20905b81548152906001019060200180831161027357829003601f168201915b5050505050905090565b5f336102a781858561035d565b60019150505b92915050565b5f336102c085828561036f565b6102cb8585856103eb565b506001949350505050565b6102de610448565b6102e88282610475565b5050565b6102f4610448565b6102fd5f6104a9565b565b606060048054610219906107f5565b5f336102a78185856103eb565b610323610448565b6001600160a01b03811661035157604051631e4fbdf760e01b81525f60048201526024015b60405180910390fd5b61035a816104a9565b50565b61036a83838360016104fa565b505050565b6001600160a01b038381165f908152600160209081526040808320938616835292905220545f198110156103e557818110156103d757604051637dc7a0d960e11b81526001600160a01b03841660048201526024810182905260448101839052606401610348565b6103e584848484035f6104fa565b50505050565b6001600160a01b03831661041457604051634b637e8f60e11b81525f6004820152602401610348565b6001600160a01b03821661043d5760405163ec442f0560e01b81525f6004820152602401610348565b61036a8383836105cc565b6005546001600160a01b031633146102fd5760405163118cdaa760e01b8152336004820152602401610348565b6001600160a01b03821661049e5760405163ec442f0560e01b81525f6004820152602401610348565b6102e85f83836105cc565b600580546001600160a01b038381166001600160a01b0319831681179093556040519116919082907f8be0079c531659141344cd1fd0a4f28419497f9722a3daafe3b4186f6b6457e0905f90a35050565b6001600160a01b0384166105235760405163e602df0560e01b81525f6004820152602401610348565b6001600160a01b03831661054c57604051634a1406b160e11b81525f6004820152602401610348565b6001600160a01b038085165f90815260016020908152604080832093871683529290522082905580156103e557826001600160a01b0316846001600160a01b03167f8c5be1e5ebec7d5bd14f71427d1e84f3dd0314c0f7b2291e5b200ac8c7c3b925846040516105be91815260200190565b60405180910390a350505050565b6001600160a01b0383166105f6578060025f8282546105eb919061082d565b909155506106669050565b6001600160a01b0383165f90815260208190526040902054818110156106485760405163391434e360e21b81526001600160a01b03851660048201526024810182905260448101839052606401610348565b6001600160a01b0384165f9081526020819052604090209082900390555b6001600160a01b038216610682576002805482900390556106a0565b6001600160a01b0382165f9081526020819052604090208054820190555b816001600160a01b0316836001600160a01b03167fddf252ad1be2c89b69c2b068fc378daa952ba7f163c4a11628f55a4df523b3ef836040516106e591815260200190565b60405180910390a3505050565b602081525f82518060208401528060208501604085015e5f604082850101526040601f19601f83011684010191505092915050565b80356001600160a01b038116811461073d575f5ffd5b919050565b5f5f60408385031215610753575f5ffd5b61075c83610727565b946020939093013593505050565b5f5f5f6060848603121561077c575f5ffd5b61078584610727565b925061079360208501610727565b929592945050506040919091013590565b5f602082840312156107b4575f5ffd5b6107bd82610727565b9392505050565b5f5f604083850312156107d5575f5ffd5b6107de83610727565b91506107ec60208401610727565b90509250929050565b600181811c9082168061080957607f821691505b60208210810361082757634e487b7160e01b5f52602260045260245ffd5b50919050565b808201808211156102ad57634e487b7160e01b5f52601160045260245ffdfea26469706673582212208eaafbd08505f74272322158b5a7e5e93743c78af0e014a2c7070e782bb6ff7264736f6c634300081e0033000000000000000000000000000000000000000000000000000000000000006000000000000000000000000000000000000000000000000000000000000000a00000000000000000000000000000000000000000000000000000000000000006000000000000000000000000000000000000000000000000000000000000000f4d6f636b2054657468657220555344000000000000000000000000000000000000000000000000000000000000000000000000000000000000000000000000045553445400000000000000000000000000000000000000000000000000000000",
        "nonce": "0xd4",
        "chainId": "0xaa36a7"
      },
      "additionalContracts": [],
      "isFixedGasLimit": false
    },
    {
      "hash": "0x7dd95d95b425fb4f4e54aa5c48584880f6fcbf10797caef8e969255eb3518c16",
      "transactionType": "CREATE",
      "contractName": "MockERC20",
      "contractAddress": "0xaeea408ffb5b7db38622455be2966aba1176fa32",
      "function": null,
      "arguments": [
        "Mock Bitcoin",
        "BTC",
        "8"
      ],
      "transaction": {
        "from": "0x610d7b11fb07f9b142c392a3649aa50dc4c9a528",
        "gas": "0xc133c",
        "value": "0x0",
        "input": "0x608060405234801561000f575f5ffd5b50604051610be2380380610be283398101604081905261002e91610198565b338383600361003d8382610299565b50600461004a8282610299565b5050506001600160a01b03811661007a57604051631e4fbdf760e01b81525f600482015260240160405180910390fd5b610083816100aa565b506005805460ff909216600160a01b0260ff60a01b19909216919091179055506103539050565b600580546001600160a01b038381166001600160a01b0319831681179093556040519116919082907f8be0079c531659141344cd1fd0a4f28419497f9722a3daafe3b4186f6b6457e0905f90a35050565b634e487b7160e01b5f52604160045260245ffd5b5f82601f83011261011e575f5ffd5b81516001600160401b03811115610137576101376100fb565b604051601f8201601f19908116603f011681016001600160401b0381118282101715610165576101656100fb565b60405281815283820160200185101561017c575f5ffd5b8160208501602083015e5f918101602001919091529392505050565b5f5f5f606084860312156101aa575f5ffd5b83516001600160401b038111156101bf575f5ffd5b6101cb8682870161010f565b602086015190945090506001600160401b038111156101e8575f5ffd5b6101f48682870161010f565b925050604084015160ff8116811461020a575f5ffd5b809150509250925092565b600181811c9082168061022957607f821691505b60208210810361024757634e487b7160e01b5f52602260045260245ffd5b50919050565b601f82111561029457805f5260205f20601f840160051c810160208510156102725750805b601f840160051c820191505b81811015610291575f815560010161027e565b50505b505050565b81516001600160401b038111156102b2576102b26100fb565b6102c6816102c08454610215565b8461024d565b6020601f8211600181146102f8575f83156102e15750848201515b5f19600385901b1c1916600184901b178455610291565b5f84815260208120601f198516915b828110156103275787850151825560209485019460019092019101610307565b508482101561034457868401515f19600387901b60f8161c191681555b50505050600190811b01905550565b610882806103605f395ff3fe608060405234801561000f575f5ffd5b50600436106100cb575f3560e01c806370a082311161008857806395d89b411161006357806395d89b41146101a4578063a9059cbb146101ac578063dd62ed3e146101bf578063f2fde38b146101f7575f5ffd5b806370a0823114610159578063715018a6146101815780638da5cb5b14610189575f5ffd5b806306fdde03146100cf578063095ea7b3146100ed57806318160ddd1461011057806323b872dd14610122578063313ce5671461013557806340c10f1914610144575b5f5ffd5b6100d761020a565b6040516100e491906106f2565b60405180910390f35b6101006100fb366004610742565b61029a565b60405190151581526020016100e4565b6002545b6040519081526020016100e4565b61010061013036600461076a565b6102b3565b604051601281526020016100e4565b610157610152366004610742565b6102d6565b005b6101146101673660046107a4565b6001600160a01b03165f9081526020819052604090205490565b6101576102ec565b6005546040516001600160a01b0390911681526020016100e4565b6100d76102ff565b6101006101ba366004610742565b61030e565b6101146101cd3660046107c4565b6001600160a01b039182165f90815260016020908152604080832093909416825291909152205490565b6101576102053660046107a4565b61031b565b606060038054610219906107f5565b80601f0160208091040260200160405190810160405280929190818152602001828054610245906107f5565b80156102905780601f1061026757610100808354040283529160200191610290565b820191905f5260205f20905b81548152906001019060200180831161027357829003601f168201915b5050505050905090565b5f336102a781858561035d565b60019150505b92915050565b5f336102c085828561036f565b6102cb8585856103eb565b506001949350505050565b6102de610448565b6102e88282610475565b5050565b6102f4610448565b6102fd5f6104a9565b565b606060048054610219906107f5565b5f336102a78185856103eb565b610323610448565b6001600160a01b03811661035157604051631e4fbdf760e01b81525f60048201526024015b60405180910390fd5b61035a816104a9565b50565b61036a83838360016104fa565b505050565b6001600160a01b038381165f908152600160209081526040808320938616835292905220545f198110156103e557818110156103d757604051637dc7a0d960e11b81526001600160a01b03841660048201526024810182905260448101839052606401610348565b6103e584848484035f6104fa565b50505050565b6001600160a01b03831661041457604051634b637e8f60e11b81525f6004820152602401610348565b6001600160a01b03821661043d5760405163ec442f0560e01b81525f6004820152602401610348565b61036a8383836105cc565b6005546001600160a01b031633146102fd5760405163118cdaa760e01b8152336004820152602401610348565b6001600160a01b03821661049e5760405163ec442f0560e01b81525f6004820152602401610348565b6102e85f83836105cc565b600580546001600160a01b038381166001600160a01b0319831681179093556040519116919082907f8be0079c531659141344cd1fd0a4f28419497f9722a3daafe3b4186f6b6457e0905f90a35050565b6001600160a01b0384166105235760405163e602df0560e01b81525f6004820152602401610348565b6001600160a01b03831661054c57604051634a1406b160e11b81525f6004820152602401610348565b6001600160a01b038085165f90815260016020908152604080832093871683529290522082905580156103e557826001600160a01b0316846001600160a01b03167f8c5be1e5ebec7d5bd14f71427d1e84f3dd0314c0f7b2291e5b200ac8c7c3b925846040516105be91815260200190565b60405180910390a350505050565b6001600160a01b0383166105f6578060025f8282546105eb919061082d565b909155506106669050565b6001600160a01b0383165f90815260208190526040902054818110156106485760405163391434e360e21b81526001600160a01b03851660048201526024810182905260448101839052606401610348565b6001600160a01b0384165f9081526020819052604090209082900390555b6001600160a01b038216610682576002805482900390556106a0565b6001600160a01b0382165f9081526020819052604090208054820190555b816001600160a01b0316836001600160a01b03167fddf252ad1be2c89b69c2b068fc378daa952ba7f163c4a11628f55a4df523b3ef836040516106e591815260200190565b60405180910390a3505050565b602081525f82518060208401528060208501604085015e5f604082850101526040601f19601f83011684010191505092915050565b80356001600160a01b038116811461073d575f5ffd5b919050565b5f5f60408385031215610753575f5ffd5b61075c83610727565b946020939093013593505050565b5f5f5f6060848603121561077c575f5ffd5b61078584610727565b925061079360208501610727565b929592945050506040919091013590565b5f602082840312156107b4575f5ffd5b6107bd82610727565b9392505050565b5f5f604083850312156107d5575f5ffd5b6107de83610727565b91506107ec60208401610727565b90509250929050565b600181811c9082168061080957607f821691505b60208210810361082757634e487b7160e01b5f52602260045260245ffd5b50919050565b808201808211156102ad57634e487b7160e01b5f52601160045260245ffdfea26469706673582212208eaafbd08505f74272322158b5a7e5e93743c78af0e014a2c7070e782bb6ff7264736f6c634300081e0033000000000000000000000000000000000000000000000000000000000000006000000000000000000000000000000000000000000000000000000000000000a00000000000000000000000000000000000000000000000000000000000000008000000000000000000000000000000000000000000000000000000000000000c4d6f636b20426974636f696e000000000000000000000000000000000000000000000000000000000000000000000000000000000000000000000000000000034254430000000000000000000000000000000000000000000000000000000000",
        "nonce": "0xd5",
        "chainId": "0xaa36a7"
      },
      "additionalContracts": [],
      "isFixedGasLimit": false
    },
    {
      "hash": "0x5989c97b035dfa68cdb6f525dc70128edd697692cbbcb8d447d47a29a78801bf",
      "transactionType": "CALL",
      "contractName": "MockERC20",
      "contractAddress": "0x9814afb94bf47e3dbe1ba98fcb8171879462e31d",
      "function": "mint(address,uint256)",
      "arguments": [
        "0x610d7b11fB07F9B142c392a3649Aa50Dc4C9a528",
        "1000000000"
      ],
      "transaction": {
        "from": "0x610d7b11fb07f9b142c392a3649aa50dc4c9a528",
        "to": "0x9814afb94bf47e3dbe1ba98fcb8171879462e31d",
        "gas": "0x17d35",
        "value": "0x0",
        "input": "0x40c10f19000000000000000000000000610d7b11fb07f9b142c392a3649aa50dc4c9a528000000000000000000000000000000000000000000000000000000003b9aca00",
        "nonce": "0xd6",
        "chainId": "0xaa36a7"
      },
      "additionalContracts": [],
      "isFixedGasLimit": false
    },
    {
      "hash": "0x51bef04b234fc1c41316d06d5600efbdbd612dd0e09030195bafcbc664daa59d",
      "transactionType": "CALL",
      "contractName": "MockERC20",
      "contractAddress": "0x9814afb94bf47e3dbe1ba98fcb8171879462e31d",
      "function": "mint(address,uint256)",
      "arguments": [
        "0x597b049EEe57889b5942d0fFAc476ED78A9296BA",
        "1000000000"
      ],
      "transaction": {
        "from": "0x610d7b11fb07f9b142c392a3649aa50dc4c9a528",
        "to": "0x9814afb94bf47e3dbe1ba98fcb8171879462e31d",
        "gas": "0x131f2",
        "value": "0x0",
        "input": "0x40c10f19000000000000000000000000597b049eee57889b5942d0ffac476ed78a9296ba000000000000000000000000000000000000000000000000000000003b9aca00",
        "nonce": "0xd7",
        "chainId": "0xaa36a7"
      },
      "additionalContracts": [],
      "isFixedGasLimit": false
    },
    {
      "hash": "0xee7995d8cd04064ea3ddd59fc7d4d317bb62d16a011055c675d7b610ca3f3aad",
      "transactionType": "CALL",
      "contractName": "MockERC20",
      "contractAddress": "0x5ed3dd9c10a8e23664941bdb882e001c7ef11a45",
      "function": "mint(address,uint256)",
      "arguments": [
        "0x610d7b11fB07F9B142c392a3649Aa50Dc4C9a528",
        "1000000000000000000000"
      ],
      "transaction": {
        "from": "0x610d7b11fb07f9b142c392a3649aa50dc4c9a528",
        "to": "0x5ed3dd9c10a8e23664941bdb882e001c7ef11a45",
        "gas": "0x17d78",
        "value": "0x0",
        "input": "0x40c10f19000000000000000000000000610d7b11fb07f9b142c392a3649aa50dc4c9a52800000000000000000000000000000000000000000000003635c9adc5dea00000",
        "nonce": "0xd8",
        "chainId": "0xaa36a7"
      },
      "additionalContracts": [],
      "isFixedGasLimit": false
    },
    {
      "hash": "0x3a5a2b6a1bae29ec8e57e0781c2263eeb7eed7575fc3e93617d4c7262c4a42ae",
      "transactionType": "CALL",
      "contractName": "MockERC20",
      "contractAddress": "0x5ed3dd9c10a8e23664941bdb882e001c7ef11a45",
      "function": "mint(address,uint256)",
      "arguments": [
        "0x597b049EEe57889b5942d0fFAc476ED78A9296BA",
        "1000000000000000000000"
      ],
      "transaction": {
        "from": "0x610d7b11fb07f9b142c392a3649aa50dc4c9a528",
        "to": "0x5ed3dd9c10a8e23664941bdb882e001c7ef11a45",
        "gas": "0x13238",
        "value": "0x0",
        "input": "0x40c10f19000000000000000000000000597b049eee57889b5942d0ffac476ed78a9296ba00000000000000000000000000000000000000000000003635c9adc5dea00000",
        "nonce": "0xd9",
        "chainId": "0xaa36a7"
      },
      "additionalContracts": [],
      "isFixedGasLimit": false
    },
    {
      "hash": "0x73d53d69f2c4fc3c888e1fff3d75eaa119a0b6e7fffba879131a797a79ca0882",
      "transactionType": "CALL",
      "contractName": "MockERC20",
      "contractAddress": "0x401e4b2cb20dc60c1e36802596e41d6c75579f29",
      "function": "mint(address,uint256)",
      "arguments": [
        "0x610d7b11fB07F9B142c392a3649Aa50Dc4C9a528",
        "1000000000"
      ],
      "transaction": {
        "from": "0x610d7b11fb07f9b142c392a3649aa50dc4c9a528",
        "to": "0x401e4b2cb20dc60c1e36802596e41d6c75579f29",
        "gas": "0x17d35",
        "value": "0x0",
        "input": "0x40c10f19000000000000000000000000610d7b11fb07f9b142c392a3649aa50dc4c9a528000000000000000000000000000000000000000000000000000000003b9aca00",
        "nonce": "0xda",
        "chainId": "0xaa36a7"
      },
      "additionalContracts": [],
      "isFixedGasLimit": false
    },
    {
      "hash": "0x10a22cad5ec325214c3077d420b8ebe96e14cd29b5cea82a3689ed77e89e208d",
      "transactionType": "CALL",
      "contractName": "MockERC20",
      "contractAddress": "0x401e4b2cb20dc60c1e36802596e41d6c75579f29",
      "function": "mint(address,uint256)",
      "arguments": [
        "0x597b049EEe57889b5942d0fFAc476ED78A9296BA",
        "1000000000"
      ],
      "transaction": {
        "from": "0x610d7b11fb07f9b142c392a3649aa50dc4c9a528",
        "to": "0x401e4b2cb20dc60c1e36802596e41d6c75579f29",
        "gas": "0x131f2",
        "value": "0x0",
        "input": "0x40c10f19000000000000000000000000597b049eee57889b5942d0ffac476ed78a9296ba000000000000000000000000000000000000000000000000000000003b9aca00",
        "nonce": "0xdb",
        "chainId": "0xaa36a7"
      },
      "additionalContracts": [],
      "isFixedGasLimit": false
    },
    {
      "hash": "0x38834bed37fc80cde49f751fbde41d927941b950867966af23d5a5124e6529c1",
      "transactionType": "CALL",
      "contractName": "MockERC20",
      "contractAddress": "0xaeea408ffb5b7db38622455be2966aba1176fa32",
      "function": "mint(address,uint256)",
      "arguments": [
        "0x610d7b11fB07F9B142c392a3649Aa50Dc4C9a528",
        "100000000000"
      ],
      "transaction": {
        "from": "0x610d7b11fb07f9b142c392a3649aa50dc4c9a528",
        "to": "0xaeea408ffb5b7db38622455be2966aba1176fa32",
        "gas": "0x193b4",
        "value": "0x0",
        "input": "0x40c10f19000000000000000000000000610d7b11fb07f9b142c392a3649aa50dc4c9a528000000000000000000000000000000000000000000000000000000174876e800",
        "nonce": "0xdc",
        "chainId": "0xaa36a7"
      },
      "additionalContracts": [],
      "isFixedGasLimit": false
    },
    {
      "hash": "0x81bcc5b56fb60887457c55bb8492001db2612b71837548665e6223e1f2e93fff",
      "transactionType": "CALL",
      "contractName": "MockERC20",
      "contractAddress": "0xaeea408ffb5b7db38622455be2966aba1176fa32",
      "function": "mint(address,uint256)",
      "arguments": [
        "0x597b049EEe57889b5942d0fFAc476ED78A9296BA",
        "100000000000"
      ],
      "transaction": {
        "from": "0x610d7b11fb07f9b142c392a3649aa50dc4c9a528",
        "to": "0xaeea408ffb5b7db38622455be2966aba1176fa32",
        "gas": "0x12102",
        "value": "0x0",
        "input": "0x40c10f19000000000000000000000000597b049eee57889b5942d0ffac476ed78a9296ba000000000000000000000000000000000000000000000000000000174876e800",
        "nonce": "0xdd",
        "chainId": "0xaa36a7"
      },
      "additionalContracts": [],
      "isFixedGasLimit": false
    }
  ],
  "receipts": [
    {
      "status": "0x1",
      "cumulativeGasUsed": "0x125ba73",
      "logs": [
        {
          "address": "0x9814afb94bf47e3dbe1ba98fcb8171879462e31d",
          "topics": [
            "0x8be0079c531659141344cd1fd0a4f28419497f9722a3daafe3b4186f6b6457e0",
            "0x0000000000000000000000000000000000000000000000000000000000000000",
            "0x000000000000000000000000610d7b11fb07f9b142c392a3649aa50dc4c9a528"
          ],
          "data": "0x",
          "blockHash": "0x2b43b710b23bd1d25ddb7d50eaa495297f1f3cede433304fb67faea18ae29580",
          "blockNumber": "0x8c16a2",
          "blockTimestamp": "0x68c2b588",
          "transactionHash": "0x1aaae428dc1a17ddb55b6779643c5523ddf2d78e597ebe00806045f6c8528d65",
          "transactionIndex": "0x36",
          "logIndex": "0x91",
          "removed": false
        }
      ],
      "logsBloom": "0x00000000000000000000000000000000000000000000000000800000000000000000000000000000001000000000000000000000000000000000000000000000000000000000000000000000000000000001000000000000000000000000000080000010020000000000000000000800000000000000000000000000000000400000000000000000000000000000000000000000000040000000000000000000000000000000000000000000000000000000000000000000000000000000000000000000000000000000000000000000000000000401000000000000000020000000000000000000000000000000000000000000000000000000000000000000",
      "type": "0x2",
      "transactionHash": "0x1aaae428dc1a17ddb55b6779643c5523ddf2d78e597ebe00806045f6c8528d65",
      "transactionIndex": "0x36",
      "blockHash": "0x2b43b710b23bd1d25ddb7d50eaa495297f1f3cede433304fb67faea18ae29580",
      "blockNumber": "0x8c16a2",
      "gasUsed": "0x949f8",
      "effectiveGasPrice": "0x123c9f",
      "from": "0x610d7b11fb07f9b142c392a3649aa50dc4c9a528",
      "to": null,
      "contractAddress": "0x9814afb94bf47e3dbe1ba98fcb8171879462e31d"
    },
    {
      "status": "0x1",
      "cumulativeGasUsed": "0x12f04a7",
      "logs": [
        {
          "address": "0x5ed3dd9c10a8e23664941bdb882e001c7ef11a45",
          "topics": [
            "0x8be0079c531659141344cd1fd0a4f28419497f9722a3daafe3b4186f6b6457e0",
            "0x0000000000000000000000000000000000000000000000000000000000000000",
            "0x000000000000000000000000610d7b11fb07f9b142c392a3649aa50dc4c9a528"
          ],
          "data": "0x",
          "blockHash": "0x2b43b710b23bd1d25ddb7d50eaa495297f1f3cede433304fb67faea18ae29580",
          "blockNumber": "0x8c16a2",
          "blockTimestamp": "0x68c2b588",
          "transactionHash": "0x2c06f40300cdc0cb084ea283d5426e3daed0379af3d17358c1b5a86b6977e907",
          "transactionIndex": "0x37",
          "logIndex": "0x92",
          "removed": false
        }
      ],
      "logsBloom": "0x00000000000000000000000000000000000000000000000000800000000000000000000000000000001000000000000000000000000000000000000000000000000000000000000000000000000000000001000400000000000000000000000080000000020000000000000000000800000000000000000000000000000000400000000000000000000000000000000000000000000000000000000000000000000000000000000000000000000000000000000000000000004000000000000000000000000000000000000000000000000000000400000000000000000020000000000000000000000000000000000000000000000000000000000000002000",
      "type": "0x2",
      "transactionHash": "0x2c06f40300cdc0cb084ea283d5426e3daed0379af3d17358c1b5a86b6977e907",
      "transactionIndex": "0x37",
      "blockHash": "0x2b43b710b23bd1d25ddb7d50eaa495297f1f3cede433304fb67faea18ae29580",
      "blockNumber": "0x8c16a2",
      "gasUsed": "0x94a34",
      "effectiveGasPrice": "0x123c9f",
      "from": "0x610d7b11fb07f9b142c392a3649aa50dc4c9a528",
      "to": null,
      "contractAddress": "0x5ed3dd9c10a8e23664941bdb882e001c7ef11a45"
    },
    {
      "status": "0x1",
      "cumulativeGasUsed": "0x1384eb7",
      "logs": [
        {
          "address": "0x401e4b2cb20dc60c1e36802596e41d6c75579f29",
          "topics": [
            "0x8be0079c531659141344cd1fd0a4f28419497f9722a3daafe3b4186f6b6457e0",
            "0x0000000000000000000000000000000000000000000000000000000000000000",
            "0x000000000000000000000000610d7b11fb07f9b142c392a3649aa50dc4c9a528"
          ],
          "data": "0x",
          "blockHash": "0x2b43b710b23bd1d25ddb7d50eaa495297f1f3cede433304fb67faea18ae29580",
          "blockNumber": "0x8c16a2",
          "blockTimestamp": "0x68c2b588",
          "transactionHash": "0x995cbcfd1d596176a54c83452576a043d3eb9e6e518aa487ad25f7fb43fc6d08",
          "transactionIndex": "0x38",
          "logIndex": "0x93",
          "removed": false
        }
      ],
      "logsBloom": "0x00000000000000000000000000000000000000000000000000800000000000000000000000000000001000000000000000000000000000000000000000000000000000000000008000000000000000000001000000000000000000000000000080000000020000000000000000000800000000000000000000000000000000400000000000000000000000000000000000000000000000000800000000000000000000000000000000000000000000000000000000000000000000000000080000000000000000000000000000000000000000000400000000000000000020000000000000000000000000000000000000000000000000000000000000000000",
      "type": "0x2",
      "transactionHash": "0x995cbcfd1d596176a54c83452576a043d3eb9e6e518aa487ad25f7fb43fc6d08",
      "transactionIndex": "0x38",
      "blockHash": "0x2b43b710b23bd1d25ddb7d50eaa495297f1f3cede433304fb67faea18ae29580",
      "blockNumber": "0x8c16a2",
      "gasUsed": "0x94a10",
      "effectiveGasPrice": "0x123c9f",
      "from": "0x610d7b11fb07f9b142c392a3649aa50dc4c9a528",
      "to": null,
      "contractAddress": "0x401e4b2cb20dc60c1e36802596e41d6c75579f29"
    },
    {
      "status": "0x1",
      "cumulativeGasUsed": "0x1419897",
      "logs": [
        {
          "address": "0xaeea408ffb5b7db38622455be2966aba1176fa32",
          "topics": [
            "0x8be0079c531659141344cd1fd0a4f28419497f9722a3daafe3b4186f6b6457e0",
            "0x0000000000000000000000000000000000000000000000000000000000000000",
            "0x000000000000000000000000610d7b11fb07f9b142c392a3649aa50dc4c9a528"
          ],
          "data": "0x",
          "blockHash": "0x2b43b710b23bd1d25ddb7d50eaa495297f1f3cede433304fb67faea18ae29580",
          "blockNumber": "0x8c16a2",
          "blockTimestamp": "0x68c2b588",
          "transactionHash": "0x7dd95d95b425fb4f4e54aa5c48584880f6fcbf10797caef8e969255eb3518c16",
          "transactionIndex": "0x39",
          "logIndex": "0x94",
          "removed": false
        }
      ],
      "logsBloom": "0x00000000000000000000000000000000000000000000000000800000000000000000000000000000001000000000000000000000000000000000000000000000000000000000000000000000000000000001000000000000000000000000000080000000020000000008000000000800000000000000000000000000000000400000001000000000000000000000000000000000000000000000000000000000000000000000000000000000000010000000000000000000000000000000000000000000000000000000000000000000000000000400000000000000000020000000000000000000000000000000000000000000000000000000000000000000",
      "type": "0x2",
      "transactionHash": "0x7dd95d95b425fb4f4e54aa5c48584880f6fcbf10797caef8e969255eb3518c16",
      "transactionIndex": "0x39",
      "blockHash": "0x2b43b710b23bd1d25ddb7d50eaa495297f1f3cede433304fb67faea18ae29580",
      "blockNumber": "0x8c16a2",
      "gasUsed": "0x949e0",
      "effectiveGasPrice": "0x123c9f",
      "from": "0x610d7b11fb07f9b142c392a3649aa50dc4c9a528",
      "to": null,
      "contractAddress": "0xaeea408ffb5b7db38622455be2966aba1176fa32"
    },
    {
      "status": "0x1",
      "cumulativeGasUsed": "0x142ac95",
      "logs": [
        {
          "address": "0x9814afb94bf47e3dbe1ba98fcb8171879462e31d",
          "topics": [
            "0xddf252ad1be2c89b69c2b068fc378daa952ba7f163c4a11628f55a4df523b3ef",
            "0x0000000000000000000000000000000000000000000000000000000000000000",
            "0x000000000000000000000000610d7b11fb07f9b142c392a3649aa50dc4c9a528"
          ],
          "data": "0x000000000000000000000000000000000000000000000000000000003b9aca00",
          "blockHash": "0x2b43b710b23bd1d25ddb7d50eaa495297f1f3cede433304fb67faea18ae29580",
          "blockNumber": "0x8c16a2",
          "blockTimestamp": "0x68c2b588",
          "transactionHash": "0x5989c97b035dfa68cdb6f525dc70128edd697692cbbcb8d447d47a29a78801bf",
          "transactionIndex": "0x3a",
          "logIndex": "0x95",
          "removed": false
        }
      ],
      "logsBloom": "0x00000000000000000000000000000000000000000000000000000000000000000000000000000000001000000000000000000000000000000000000000000000000000000000000000000008000000000000000000000000000000000000000080000010020000000000000000000800000000000000000000000010000000000000000000000000000000000000000000000000000040000000000000000000000000000000000000000000000000000000000000000000000000000000000000000002000000000000000000000000000000000401000000000000000020000000000000000000000000000000000000000000000000000000000000000000",
      "type": "0x2",
      "transactionHash": "0x5989c97b035dfa68cdb6f525dc70128edd697692cbbcb8d447d47a29a78801bf",
      "transactionIndex": "0x3a",
      "blockHash": "0x2b43b710b23bd1d25ddb7d50eaa495297f1f3cede433304fb67faea18ae29580",
      "blockNumber": "0x8c16a2",
      "gasUsed": "0x113fe",
      "effectiveGasPrice": "0x123c9f",
      "from": "0x610d7b11fb07f9b142c392a3649aa50dc4c9a528",
      "to": "0x9814afb94bf47e3dbe1ba98fcb8171879462e31d",
      "contractAddress": null
    },
    {
      "status": "0x1",
      "cumulativeGasUsed": "0x1437dc7",
      "logs": [
        {
          "address": "0x9814afb94bf47e3dbe1ba98fcb8171879462e31d",
          "topics": [
            "0xddf252ad1be2c89b69c2b068fc378daa952ba7f163c4a11628f55a4df523b3ef",
            "0x0000000000000000000000000000000000000000000000000000000000000000",
            "0x000000000000000000000000597b049eee57889b5942d0ffac476ed78a9296ba"
          ],
          "data": "0x000000000000000000000000000000000000000000000000000000003b9aca00",
          "blockHash": "0x2b43b710b23bd1d25ddb7d50eaa495297f1f3cede433304fb67faea18ae29580",
          "blockNumber": "0x8c16a2",
          "blockTimestamp": "0x68c2b588",
          "transactionHash": "0x51bef04b234fc1c41316d06d5600efbdbd612dd0e09030195bafcbc664daa59d",
          "transactionIndex": "0x3b",
          "logIndex": "0x96",
          "removed": false
        }
      ],
      "logsBloom": "0x00000000000000000000000000000000000000000000000000000000000000000000000000000000000000000000000000000000000000000000000000000000000000000000000000000008000000000000000000000000000000000000000000000010020000000000000000000800200000000000000000000010000000002000000000000000000000000000000000000000000040000000000000000000000000000000000000000000000000000000000000000000000000000000000000000002000000000000000000000000000000000001000000000000000020000000000000000000000000000000000000000000000000000010000000000000",
      "type": "0x2",
      "transactionHash": "0x51bef04b234fc1c41316d06d5600efbdbd612dd0e09030195bafcbc664daa59d",
      "transactionIndex": "0x3b",
      "blockHash": "0x2b43b710b23bd1d25ddb7d50eaa495297f1f3cede433304fb67faea18ae29580",
      "blockNumber": "0x8c16a2",
      "gasUsed": "0xd132",
      "effectiveGasPrice": "0x123c9f",
      "from": "0x610d7b11fb07f9b142c392a3649aa50dc4c9a528",
      "to": "0x9814afb94bf47e3dbe1ba98fcb8171879462e31d",
      "contractAddress": null
    },
    {
      "status": "0x1",
      "cumulativeGasUsed": "0x14491f5",
      "logs": [
        {
          "address": "0x5ed3dd9c10a8e23664941bdb882e001c7ef11a45",
          "topics": [
            "0xddf252ad1be2c89b69c2b068fc378daa952ba7f163c4a11628f55a4df523b3ef",
            "0x0000000000000000000000000000000000000000000000000000000000000000",
            "0x000000000000000000000000610d7b11fb07f9b142c392a3649aa50dc4c9a528"
          ],
          "data": "0x00000000000000000000000000000000000000000000003635c9adc5dea00000",
          "blockHash": "0x2b43b710b23bd1d25ddb7d50eaa495297f1f3cede433304fb67faea18ae29580",
          "blockNumber": "0x8c16a2",
          "blockTimestamp": "0x68c2b588",
          "transactionHash": "0xee7995d8cd04064ea3ddd59fc7d4d317bb62d16a011055c675d7b610ca3f3aad",
          "transactionIndex": "0x3c",
          "logIndex": "0x97",
          "removed": false
        }
      ],
      "logsBloom": "0x00000000000000000000000000000000000000000000000000000000000000000000000000000000001000000000000000000000000000000000000000000000000000000000000000000008000000000000000400000000000000000000000080000000020000000000000000000800000000000000000000000010000000000000000000000000000000000000000000000000000000000000000000000000000000000000000000000000000000000000000000000000004000000000000000000002000000000000000000000000000000000400000000000000000020000000000000000000000000000000000000000000000000000000000000002000",
      "type": "0x2",
      "transactionHash": "0xee7995d8cd04064ea3ddd59fc7d4d317bb62d16a011055c675d7b610ca3f3aad",
      "transactionIndex": "0x3c",
      "blockHash": "0x2b43b710b23bd1d25ddb7d50eaa495297f1f3cede433304fb67faea18ae29580",
      "blockNumber": "0x8c16a2",
      "gasUsed": "0x1142e",
      "effectiveGasPrice": "0x123c9f",
      "from": "0x610d7b11fb07f9b142c392a3649aa50dc4c9a528",
      "to": "0x5ed3dd9c10a8e23664941bdb882e001c7ef11a45",
      "contractAddress": null
    },
    {
      "status": "0x1",
      "cumulativeGasUsed": "0x1456357",
      "logs": [
        {
          "address": "0x5ed3dd9c10a8e23664941bdb882e001c7ef11a45",
          "topics": [
            "0xddf252ad1be2c89b69c2b068fc378daa952ba7f163c4a11628f55a4df523b3ef",
            "0x0000000000000000000000000000000000000000000000000000000000000000",
            "0x000000000000000000000000597b049eee57889b5942d0ffac476ed78a9296ba"
          ],
          "data": "0x00000000000000000000000000000000000000000000003635c9adc5dea00000",
          "blockHash": "0x2b43b710b23bd1d25ddb7d50eaa495297f1f3cede433304fb67faea18ae29580",
          "blockNumber": "0x8c16a2",
          "blockTimestamp": "0x68c2b588",
          "transactionHash": "0x3a5a2b6a1bae29ec8e57e0781c2263eeb7eed7575fc3e93617d4c7262c4a42ae",
          "transactionIndex": "0x3d",
          "logIndex": "0x98",
          "removed": false
        }
      ],
      "logsBloom": "0x00000000000000000000000000000000000000000000000000000000000000000000000000000000000000000000000000000000000000000000000000000000000000000000000000000008000000000000000400000000000000000000000000000000020000000000000000000800200000000000000000000010000000002000000000000000000000000000000000000000000000000000000000000000000000000000000000000000000000000000000000000000004000000000000000000002000000000000000000000000000000000000000000000000000020000000000000000000000000000000000000000000000000000010000000002000",
      "type": "0x2",
      "transactionHash": "0x3a5a2b6a1bae29ec8e57e0781c2263eeb7eed7575fc3e93617d4c7262c4a42ae",
      "transactionIndex": "0x3d",
      "blockHash": "0x2b43b710b23bd1d25ddb7d50eaa495297f1f3cede433304fb67faea18ae29580",
      "blockNumber": "0x8c16a2",
      "gasUsed": "0xd162",
      "effectiveGasPrice": "0x123c9f",
      "from": "0x610d7b11fb07f9b142c392a3649aa50dc4c9a528",
      "to": "0x5ed3dd9c10a8e23664941bdb882e001c7ef11a45",
      "contractAddress": null
    },
    {
      "status": "0x1",
      "cumulativeGasUsed": "0x1467755",
      "logs": [
        {
          "address": "0x401e4b2cb20dc60c1e36802596e41d6c75579f29",
          "topics": [
            "0xddf252ad1be2c89b69c2b068fc378daa952ba7f163c4a11628f55a4df523b3ef",
            "0x0000000000000000000000000000000000000000000000000000000000000000",
            "0x000000000000000000000000610d7b11fb07f9b142c392a3649aa50dc4c9a528"
          ],
          "data": "0x000000000000000000000000000000000000000000000000000000003b9aca00",
          "blockHash": "0x2b43b710b23bd1d25ddb7d50eaa495297f1f3cede433304fb67faea18ae29580",
          "blockNumber": "0x8c16a2",
          "blockTimestamp": "0x68c2b588",
          "transactionHash": "0x73d53d69f2c4fc3c888e1fff3d75eaa119a0b6e7fffba879131a797a79ca0882",
          "transactionIndex": "0x3e",
          "logIndex": "0x99",
          "removed": false
        }
      ],
      "logsBloom": "0x00000000000000000000000000000000000000000000000000000000000000000000000000000000001000000000000000000000000000000000000000000000000000000000008000000008000000000000000000000000000000000000000080000000020000000000000000000800000000000000000000000010000000000000000000000000000000000000000000000000000000000800000000000000000000000000000000000000000000000000000000000000000000000000080000000002000000000000000000000000000000000400000000000000000020000000000000000000000000000000000000000000000000000000000000000000",
      "type": "0x2",
      "transactionHash": "0x73d53d69f2c4fc3c888e1fff3d75eaa119a0b6e7fffba879131a797a79ca0882",
      "transactionIndex": "0x3e",
      "blockHash": "0x2b43b710b23bd1d25ddb7d50eaa495297f1f3cede433304fb67faea18ae29580",
      "blockNumber": "0x8c16a2",
      "gasUsed": "0x113fe",
      "effectiveGasPrice": "0x123c9f",
      "from": "0x610d7b11fb07f9b142c392a3649aa50dc4c9a528",
      "to": "0x401e4b2cb20dc60c1e36802596e41d6c75579f29",
      "contractAddress": null
    },
    {
      "status": "0x1",
      "cumulativeGasUsed": "0x1474887",
      "logs": [
        {
          "address": "0x401e4b2cb20dc60c1e36802596e41d6c75579f29",
          "topics": [
            "0xddf252ad1be2c89b69c2b068fc378daa952ba7f163c4a11628f55a4df523b3ef",
            "0x0000000000000000000000000000000000000000000000000000000000000000",
            "0x000000000000000000000000597b049eee57889b5942d0ffac476ed78a9296ba"
          ],
          "data": "0x000000000000000000000000000000000000000000000000000000003b9aca00",
          "blockHash": "0x2b43b710b23bd1d25ddb7d50eaa495297f1f3cede433304fb67faea18ae29580",
          "blockNumber": "0x8c16a2",
          "blockTimestamp": "0x68c2b588",
          "transactionHash": "0x10a22cad5ec325214c3077d420b8ebe96e14cd29b5cea82a3689ed77e89e208d",
          "transactionIndex": "0x3f",
          "logIndex": "0x9a",
          "removed": false
        }
      ],
      "logsBloom": "0x00000000000000000000000000000000000000000000000000000000000000000000000000000000000000000000000000000000000000000000000000000000000000000000008000000008000000000000000000000000000000000000000000000000020000000000000000000800200000000000000000000010000000002000000000000000000000000000000000000000000000000800000000000000000000000000000000000000000000000000000000000000000000000000080000000002000000000000000000000000000000000000000000000000000020000000000000000000000000000000000000000000000000000010000000000000",
      "type": "0x2",
      "transactionHash": "0x10a22cad5ec325214c3077d420b8ebe96e14cd29b5cea82a3689ed77e89e208d",
      "transactionIndex": "0x3f",
      "blockHash": "0x2b43b710b23bd1d25ddb7d50eaa495297f1f3cede433304fb67faea18ae29580",
      "blockNumber": "0x8c16a2",
      "gasUsed": "0xd132",
      "effectiveGasPrice": "0x123c9f",
      "from": "0x610d7b11fb07f9b142c392a3649aa50dc4c9a528",
      "to": "0x401e4b2cb20dc60c1e36802596e41d6c75579f29",
      "contractAddress": null
    },
    {
      "status": "0x1",
      "cumulativeGasUsed": "0x1485c91",
      "logs": [
        {
          "address": "0xaeea408ffb5b7db38622455be2966aba1176fa32",
          "topics": [
            "0xddf252ad1be2c89b69c2b068fc378daa952ba7f163c4a11628f55a4df523b3ef",
            "0x0000000000000000000000000000000000000000000000000000000000000000",
            "0x000000000000000000000000610d7b11fb07f9b142c392a3649aa50dc4c9a528"
          ],
          "data": "0x000000000000000000000000000000000000000000000000000000174876e800",
          "blockHash": "0x2b43b710b23bd1d25ddb7d50eaa495297f1f3cede433304fb67faea18ae29580",
          "blockNumber": "0x8c16a2",
          "blockTimestamp": "0x68c2b588",
          "transactionHash": "0x38834bed37fc80cde49f751fbde41d927941b950867966af23d5a5124e6529c1",
          "transactionIndex": "0x40",
          "logIndex": "0x9b",
          "removed": false
        }
      ],
      "logsBloom": "0x00000000000000000000000000000000000000000000000000000000000000000000000000000000001000000000000000000000000000000000000000000000000000000000000000000008000000000000000000000000000000000000000080000000020000000008000000000800000000000000000000000010000000000000001000000000000000000000000000000000000000000000000000000000000000000000000000000000000010000000000000000000000000000000000000000002000000000000000000000000000000000400000000000000000020000000000000000000000000000000000000000000000000000000000000000000",
      "type": "0x2",
      "transactionHash": "0x38834bed37fc80cde49f751fbde41d927941b950867966af23d5a5124e6529c1",
      "transactionIndex": "0x40",
      "blockHash": "0x2b43b710b23bd1d25ddb7d50eaa495297f1f3cede433304fb67faea18ae29580",
      "blockNumber": "0x8c16a2",
      "gasUsed": "0x1140a",
      "effectiveGasPrice": "0x123c9f",
      "from": "0x610d7b11fb07f9b142c392a3649aa50dc4c9a528",
      "to": "0xaeea408ffb5b7db38622455be2966aba1176fa32",
      "contractAddress": null
    },
    {
      "status": "0x1",
      "cumulativeGasUsed": "0x1492dcf",
      "logs": [
        {
          "address": "0xaeea408ffb5b7db38622455be2966aba1176fa32",
          "topics": [
            "0xddf252ad1be2c89b69c2b068fc378daa952ba7f163c4a11628f55a4df523b3ef",
            "0x0000000000000000000000000000000000000000000000000000000000000000",
            "0x000000000000000000000000597b049eee57889b5942d0ffac476ed78a9296ba"
          ],
          "data": "0x000000000000000000000000000000000000000000000000000000174876e800",
          "blockHash": "0x2b43b710b23bd1d25ddb7d50eaa495297f1f3cede433304fb67faea18ae29580",
          "blockNumber": "0x8c16a2",
          "blockTimestamp": "0x68c2b588",
          "transactionHash": "0x81bcc5b56fb60887457c55bb8492001db2612b71837548665e6223e1f2e93fff",
          "transactionIndex": "0x41",
          "logIndex": "0x9c",
          "removed": false
        }
      ],
      "logsBloom": "0x00000000000000000000000000000000000000000000000000000000000000000000000000000000000000000000000000000000000000000000000000000000000000000000000000000008000000000000000000000000000000000000000000000000020000000008000000000800200000000000000000000010000000002000001000000000000000000000000000000000000000000000000000000000000000000000000000000000000010000000000000000000000000000000000000000002000000000000000000000000000000000000000000000000000020000000000000000000000000000000000000000000000000000010000000000000",
      "type": "0x2",
      "transactionHash": "0x81bcc5b56fb60887457c55bb8492001db2612b71837548665e6223e1f2e93fff",
      "transactionIndex": "0x41",
      "blockHash": "0x2b43b710b23bd1d25ddb7d50eaa495297f1f3cede433304fb67faea18ae29580",
      "blockNumber": "0x8c16a2",
      "gasUsed": "0xd13e",
      "effectiveGasPrice": "0x123c9f",
      "from": "0x610d7b11fb07f9b142c392a3649aa50dc4c9a528",
      "to": "0xaeea408ffb5b7db38622455be2966aba1176fa32",
      "contractAddress": null
    }
  ],
  "libraries": [],
  "pending": [],
  "returns": {},
  "timestamp": 1757590924044,
  "chain": 11155111,
  "commit": "03e36b1"
}