{
  "transactions": [
    {
      "hash": "0x69401a024f679945c5c2e27c8342278adadf723cb31e1ef746c7c0c537e55a70",
      "transactionType": "CALL",
      "contractName": "MockERC20",
      "contractAddress": "0x2246008845d7385a7c5c9dacea09a36823fbcb88",
      "function": "approve(address,uint256)",
      "arguments": [
        "0xcc2149eeca0B6Bb7228E7A651987ebB064276463",
        "2000000000"
      ],
      "transaction": {
        "from": "0xc29de8ad0a5d07aa5b51020883358bdf6b60ce2e",
        "to": "0x2246008845d7385a7c5c9dacea09a36823fbcb88",
        "gas": "0x108ad",
        "value": "0x0",
        "input": "0x095ea7b3000000000000000000000000cc2149eeca0b6bb7228e7a651987ebb0642764630000000000000000000000000000000000000000000000000000000077359400",
        "nonce": "0x3",
        "chainId": "0xaa36a7"
      },
      "additionalContracts": [],
      "isFixedGasLimit": false
    },
    {
      "hash": "0x8c063a360d45ac12274472514c97a0af6e91fb9730b8c3dfb7855c19311defd2",
      "transactionType": "CALL",
      "contractName": "StreamBoost",
      "contractAddress": "0xcc2149eeca0b6bb7228e7a651987ebb064276463",
      "function": "createStream(string,address,address,uint256,uint256,uint256)",
      "arguments": [
        "stream-no-cliff-20251003-1759485732",
        "0xB2aE051A8A37F5c150A6e67f4C9EB9d1d4720542",
        "0x2246008845d7385a7C5c9dacea09A36823FbcB88",
        "1000000000",
        "172800",
        "0"
      ],
      "transaction": {
        "from": "0xc29de8ad0a5d07aa5b51020883358bdf6b60ce2e",
        "to": "0xcc2149eeca0b6bb7228e7a651987ebb064276463",
        "gas": "0xc4892",
        "value": "0x0",
        "input": "0x3e2436d600000000000000000000000000000000000000000000000000000000000000c0000000000000000000000000b2ae051a8a37f5c150a6e67f4c9eb9d1d47205420000000000000000000000002246008845d7385a7c5c9dacea09a36823fbcb88000000000000000000000000000000000000000000000000000000003b9aca00000000000000000000000000000000000000000000000000000000000002a3000000000000000000000000000000000000000000000000000000000000000000000000000000000000000000000000000000000000000000000000000000002373747265616d2d6e6f2d636c6966662d32303235313030332d313735393438353733320000000000000000000000000000000000000000000000000000000000",
        "nonce": "0x4",
        "chainId": "0xaa36a7"
      },
      "additionalContracts": [],
      "isFixedGasLimit": false
    },
    {
      "hash": "0xf6066ac9431a18f7f1a798ef3c4b3e12e277374d7e3c331621adcc100ffd44ca",
      "transactionType": "CALL",
      "contractName": "StreamBoost",
      "contractAddress": "0xcc2149eeca0b6bb7228e7a651987ebb064276463",
      "function": "createStream(string,address,address,uint256,uint256,uint256)",
      "arguments": [
        "stream-with-cliff-20251003-1759485732",
        "0xB2aE051A8A37F5c150A6e67f4C9EB9d1d4720542",
        "0x2246008845d7385a7C5c9dacea09A36823FbcB88",
        "1000000000",
        "172800",
        "86400"
      ],
      "transaction": {
        "from": "0xc29de8ad0a5d07aa5b51020883358bdf6b60ce2e",
        "to": "0xcc2149eeca0b6bb7228e7a651987ebb064276463",
        "gas": "0xb66bb",
        "value": "0x0",
        "input": "0x3e2436d600000000000000000000000000000000000000000000000000000000000000c0000000000000000000000000b2ae051a8a37f5c150a6e67f4c9eb9d1d47205420000000000000000000000002246008845d7385a7c5c9dacea09a36823fbcb88000000000000000000000000000000000000000000000000000000003b9aca00000000000000000000000000000000000000000000000000000000000002a3000000000000000000000000000000000000000000000000000000000000015180000000000000000000000000000000000000000000000000000000000000002573747265616d2d776974682d636c6966662d32303235313030332d31373539343835373332000000000000000000000000000000000000000000000000000000",
        "nonce": "0x5",
        "chainId": "0xaa36a7"
      },
      "additionalContracts": [],
      "isFixedGasLimit": false
    }
  ],
  "receipts": [
    {
      "status": "0x1",
      "cumulativeGasUsed": "0x156ad1e",
      "logs": [
        {
          "address": "0x2246008845d7385a7c5c9dacea09a36823fbcb88",
          "topics": [
            "0x8c5be1e5ebec7d5bd14f71427d1e84f3dd0314c0f7b2291e5b200ac8c7c3b925",
            "0x000000000000000000000000c29de8ad0a5d07aa5b51020883358bdf6b60ce2e",
            "0x000000000000000000000000cc2149eeca0b6bb7228e7a651987ebb064276463"
          ],
          "data": "0x0000000000000000000000000000000000000000000000000000000077359400",
          "blockHash": "0x62c44ef6c7687973d509eaaf954271d49216f96b70b71e5916484afdc2f22c5d",
          "blockNumber": "0x8e6a0a",
          "blockTimestamp": "0x68df9f3c",
          "transactionHash": "0x69401a024f679945c5c2e27c8342278adadf723cb31e1ef746c7c0c537e55a70",
          "transactionIndex": "0x70",
          "logIndex": "0x8b",
          "removed": false
        }
      ],
      "logsBloom": "0x00000000020000000000000000000000000000000000000800000000001000000000000000000000000000000000000000000000000000000000000000200000200000000000000000000000000000000000000000000002000000000000000000000000000000000000000000000000000000400000000000000000000000000002000000000000000000000000000000000000000008000000000000000000020000000000000000000000000000000000000000000000000000000000000000000000000000000000000000000000000000000000000000000000000000000010000000001000000000000000000000000000000000000000000000000000",
      "type": "0x2",
      "transactionHash": "0x69401a024f679945c5c2e27c8342278adadf723cb31e1ef746c7c0c537e55a70",
      "transactionIndex": "0x70",
      "blockHash": "0x62c44ef6c7687973d509eaaf954271d49216f96b70b71e5916484afdc2f22c5d",
      "blockNumber": "0x8e6a0a",
      "gasUsed": "0xb4fa",
      "effectiveGasPrice": "0xf4256",
      "from": "0xc29de8ad0a5d07aa5b51020883358bdf6b60ce2e",
      "to": "0x2246008845d7385a7c5c9dacea09a36823fbcb88",
      "contractAddress": null
    },
    {
      "status": "0x1",
      "cumulativeGasUsed": "0x15f6549",
      "logs": [
        {
          "address": "0x2246008845d7385a7c5c9dacea09a36823fbcb88",
          "topics": [
            "0xddf252ad1be2c89b69c2b068fc378daa952ba7f163c4a11628f55a4df523b3ef",
            "0x000000000000000000000000c29de8ad0a5d07aa5b51020883358bdf6b60ce2e",
            "0x000000000000000000000000cc2149eeca0b6bb7228e7a651987ebb064276463"
          ],
          "data": "0x000000000000000000000000000000000000000000000000000000003b9aca00",
          "blockHash": "0x62c44ef6c7687973d509eaaf954271d49216f96b70b71e5916484afdc2f22c5d",
          "blockNumber": "0x8e6a0a",
          "blockTimestamp": "0x68df9f3c",
          "transactionHash": "0x8c063a360d45ac12274472514c97a0af6e91fb9730b8c3dfb7855c19311defd2",
          "transactionIndex": "0x72",
          "logIndex": "0x8c",
          "removed": false
        },
        {
          "address": "0xcc2149eeca0b6bb7228e7a651987ebb064276463",
          "topics": [
            "0x906969e50f050bb64df1fbdebaba959249f79c7ed4e322ecece97f4790efb568",
            "0x750e1b2a52ceed496430a206500ba2f3743832e779e1a4f44834a90d692e5ff6",
            "0x000000000000000000000000c29de8ad0a5d07aa5b51020883358bdf6b60ce2e",
            "0x000000000000000000000000b2ae051a8a37f5c150a6e67f4c9eb9d1d4720542"
          ],
          "data": "0x",
          "blockHash": "0x62c44ef6c7687973d509eaaf954271d49216f96b70b71e5916484afdc2f22c5d",
          "blockNumber": "0x8e6a0a",
          "blockTimestamp": "0x68df9f3c",
          "transactionHash": "0x8c063a360d45ac12274472514c97a0af6e91fb9730b8c3dfb7855c19311defd2",
          "transactionIndex": "0x72",
          "logIndex": "0x8d",
          "removed": false
        }
      ],
      "logsBloom": "0x00000000020000000000000000000000000000000000000800000000021000000200000000000000000000000020080000010000000000000010000000000000200000000000000000000008000200000000000000000002001000000000000000000000000000000000000010000000000000400000000000000010000040000002000000000000000000000000000000000000000008000000000000000008000000000000000000000000000000000000000000000000000000000000000000000002000000000000000000004000000000000000000000000000000000000000000000001000000000000000000000000000000000000000000000000000",
      "type": "0x2",
      "transactionHash": "0x8c063a360d45ac12274472514c97a0af6e91fb9730b8c3dfb7855c19311defd2",
      "transactionIndex": "0x72",
      "blockHash": "0x62c44ef6c7687973d509eaaf954271d49216f96b70b71e5916484afdc2f22c5d",
      "blockNumber": "0x8e6a0a",
      "gasUsed": "0x86623",
      "effectiveGasPrice": "0xf4256",
      "from": "0xc29de8ad0a5d07aa5b51020883358bdf6b60ce2e",
      "to": "0xcc2149eeca0b6bb7228e7a651987ebb064276463",
      "contractAddress": null
    },
    {
      "status": "0x1",
      "cumulativeGasUsed": "0x167f86e",
      "logs": [
        {
          "address": "0x2246008845d7385a7c5c9dacea09a36823fbcb88",
          "topics": [
            "0xddf252ad1be2c89b69c2b068fc378daa952ba7f163c4a11628f55a4df523b3ef",
            "0x000000000000000000000000c29de8ad0a5d07aa5b51020883358bdf6b60ce2e",
            "0x000000000000000000000000cc2149eeca0b6bb7228e7a651987ebb064276463"
          ],
          "data": "0x000000000000000000000000000000000000000000000000000000003b9aca00",
          "blockHash": "0x62c44ef6c7687973d509eaaf954271d49216f96b70b71e5916484afdc2f22c5d",
          "blockNumber": "0x8e6a0a",
          "blockTimestamp": "0x68df9f3c",
          "transactionHash": "0xf6066ac9431a18f7f1a798ef3c4b3e12e277374d7e3c331621adcc100ffd44ca",
          "transactionIndex": "0x74",
          "logIndex": "0x8e",
          "removed": false
        },
        {
          "address": "0xcc2149eeca0b6bb7228e7a651987ebb064276463",
          "topics": [
            "0x906969e50f050bb64df1fbdebaba959249f79c7ed4e322ecece97f4790efb568",
            "0xffd6e5d0d45edcc0635beb904939a1f98070f8c25bc0b1bd2a07d466a1c1ffc8",
            "0x000000000000000000000000c29de8ad0a5d07aa5b51020883358bdf6b60ce2e",
            "0x000000000000000000000000b2ae051a8a37f5c150a6e67f4c9eb9d1d4720542"
          ],
          "data": "0x",
          "blockHash": "0x62c44ef6c7687973d509eaaf954271d49216f96b70b71e5916484afdc2f22c5d",
          "blockNumber": "0x8e6a0a",
          "blockTimestamp": "0x68df9f3c",
          "transactionHash": "0xf6066ac9431a18f7f1a798ef3c4b3e12e277374d7e3c331621adcc100ffd44ca",
          "transactionIndex": "0x74",
          "logIndex": "0x8f",
          "removed": false
        }
      ],
      "logsBloom": "0x00000000020000800000000000000000000000000000000800000000021000000200000000000000000000000000080002010000000000000000000000000000200000000000000000000008000200000000000000000002001000000000000000000000000000000000000010000000000000400000000000000010000040000002000000000000000000000000000000000000000008000000000000000008000100000000000000000000000000000000000000000000000000000000000000000002000000000000000000000000000000000000000000000000000000000000000000001000000000000000000000000000000000000000000000000000",
      "type": "0x2",
      "transactionHash": "0xf6066ac9431a18f7f1a798ef3c4b3e12e277374d7e3c331621adcc100ffd44ca",
      "transactionIndex": "0x74",
      "blockHash": "0x62c44ef6c7687973d509eaaf954271d49216f96b70b71e5916484afdc2f22c5d",
      "blockNumber": "0x8e6a0a",
      "gasUsed": "0x8411d",
      "effectiveGasPrice": "0xf4256",
      "from": "0xc29de8ad0a5d07aa5b51020883358bdf6b60ce2e",
      "to": "0xcc2149eeca0b6bb7228e7a651987ebb064276463",
      "contractAddress": null
    }
  ],
  "libraries": [],
  "pending": [],
  "returns": {},
  "timestamp": 1759485757170,
  "chain": 11155111,
  "commit": "91c0d6c"
}