{
  "transactions": [
    {
      "hash": "0x60bf4b6b3986ce9d6a2faee91f41b51dc620291c3804d7977f45e81857f8cea6",
      "transactionType": "CALL",
      "contractName": "MockERC20",
      "contractAddress": "0x2246008845d7385a7c5c9dacea09a36823fbcb88",
      "function": "mint(address,uint256)",
      "arguments": [
        "0x610d7b11fB07F9B142c392a3649Aa50Dc4C9a528",
        "2000000000"
      ],
      "transaction": {
        "from": "0x610d7b11fb07f9b142c392a3649aa50dc4c9a528",
        "to": "0x2246008845d7385a7c5c9dacea09a36823fbcb88",
        "gas": "0x17d35",
        "value": "0x0",
        "input": "0x40c10f19000000000000000000000000610d7b11fb07f9b142c392a3649aa50dc4c9a5280000000000000000000000000000000000000000000000000000000077359400",
        "nonce": "0xce",
        "chainId": "0xaa36a7"
      },
      "additionalContracts": [],
      "isFixedGasLimit": false
    },
    {
      "hash": "0x6b669eaa72f2bd34a1a6fd3769c8e4e06358fb5abc50acf7eb1cd236d3a269ca",
      "transactionType": "CALL",
      "contractName": "MockERC20",
      "contractAddress": "0x2246008845d7385a7c5c9dacea09a36823fbcb88",
      "function": "approve(address,uint256)",
      "arguments": [
        "0xcc2149eeca0B6Bb7228E7A651987ebB064276463",
        "2000000000"
      ],
      "transaction": {
        "from": "0x610d7b11fb07f9b142c392a3649aa50dc4c9a528",
        "to": "0x2246008845d7385a7c5c9dacea09a36823fbcb88",
        "gas": "0x108ad",
        "value": "0x0",
        "input": "0x095ea7b3000000000000000000000000cc2149eeca0b6bb7228e7a651987ebb0642764630000000000000000000000000000000000000000000000000000000077359400",
        "nonce": "0xcf",
        "chainId": "0xaa36a7"
      },
      "additionalContracts": [],
      "isFixedGasLimit": false
    },
    {
      "hash": "0x73aee0727ec6598b524ce4555095a32030cbeb99f55171c3d05e78e63d9e10f0",
      "transactionType": "CALL",
      "contractName": null,
      "contractAddress": "0xcc2149eeca0b6bb7228e7a651987ebb064276463",
      "function": "createStream(string,address,address,uint256,uint256,uint256)",
      "arguments": [
        "stream-no-cliff-001",
        "0x597b049EEe57889b5942d0fFAc476ED78A9296BA",
        "0x2246008845d7385a7C5c9dacea09A36823FbcB88",
        "1000000000",
        "2592000",
        "0"
      ],
      "transaction": {
        "from": "0x610d7b11fb07f9b142c392a3649aa50dc4c9a528",
        "to": "0xcc2149eeca0b6bb7228e7a651987ebb064276463",
        "gas": "0x9a76f",
        "value": "0x0",
        "input": "0x3e2436d600000000000000000000000000000000000000000000000000000000000000c0000000000000000000000000597b049eee57889b5942d0ffac476ed78a9296ba0000000000000000000000002246008845d7385a7c5c9dacea09a36823fbcb88000000000000000000000000000000000000000000000000000000003b9aca000000000000000000000000000000000000000000000000000000000000278d000000000000000000000000000000000000000000000000000000000000000000000000000000000000000000000000000000000000000000000000000000001373747265616d2d6e6f2d636c6966662d30303100000000000000000000000000",
        "nonce": "0xd0",
        "chainId": "0xaa36a7"
      },
      "additionalContracts": [],
      "isFixedGasLimit": false
    },
    {
      "hash": "0xced1f171e08a522da1c2aa7adb0f4454422014f9546486d0680c8cb6d4873a32",
      "transactionType": "CALL",
      "contractName": null,
      "contractAddress": "0xcc2149eeca0b6bb7228e7a651987ebb064276463",
      "function": "createStream(string,address,address,uint256,uint256,uint256)",
      "arguments": [
        "stream-with-cliff-001",
        "0x597b049EEe57889b5942d0fFAc476ED78A9296BA",
        "0x2246008845d7385a7C5c9dacea09A36823FbcB88",
        "1000000000",
        "2592000",
        "604800"
      ],
      "transaction": {
        "from": "0x610d7b11fb07f9b142c392a3649aa50dc4c9a528",
        "to": "0xcc2149eeca0b6bb7228e7a651987ebb064276463",
        "gas": "0x7a6fb",
        "value": "0x0",
        "input": "0x3e2436d600000000000000000000000000000000000000000000000000000000000000c0000000000000000000000000597b049eee57889b5942d0ffac476ed78a9296ba0000000000000000000000002246008845d7385a7c5c9dacea09a36823fbcb88000000000000000000000000000000000000000000000000000000003b9aca000000000000000000000000000000000000000000000000000000000000278d000000000000000000000000000000000000000000000000000000000000093a80000000000000000000000000000000000000000000000000000000000000001573747265616d2d776974682d636c6966662d3030310000000000000000000000",
        "nonce": "0xd1",
        "chainId": "0xaa36a7"
      },
      "additionalContracts": [],
      "isFixedGasLimit": false
    }
  ],
  "receipts": [
    {
      "status": "0x1",
      "cumulativeGasUsed": "0x72613c",
      "logs": [
        {
          "address": "0x2246008845d7385a7c5c9dacea09a36823fbcb88",
          "topics": [
            "0xddf252ad1be2c89b69c2b068fc378daa952ba7f163c4a11628f55a4df523b3ef",
            "0x0000000000000000000000000000000000000000000000000000000000000000",
            "0x000000000000000000000000610d7b11fb07f9b142c392a3649aa50dc4c9a528"
          ],
          "data": "0x0000000000000000000000000000000000000000000000000000000077359400",
          "blockHash": "0xb94b9ed158e478422971cb0736665fe7b2a99dc7aeb09cb9f5f51ad1cb12cae5",
          "blockNumber": "0x8bc3ef",
          "blockTimestamp": "0x68beb934",
          "transactionHash": "0x60bf4b6b3986ce9d6a2faee91f41b51dc620291c3804d7977f45e81857f8cea6",
          "transactionIndex": "0x49",
          "logIndex": "0x39",
          "removed": false
        }
      ],
      "logsBloom": "0x00000000000000000000000000000000000000000000000000000000001000000000000000000000001000000000000000000000000000000000000000000000200000000000000000000008000000000000000000000000000000000000000080000000020000000000000000000800000000000000000000000010000000000000000000000000000000000000000000000000000000000000000000000000000000000000000000000000000000000000000000000000000000000000000000000002000000000000000000000000000000000400000000000000000020000000000000001000000000000000000000000000000000000000000000000000",
      "type": "0x2",
      "transactionHash": "0x60bf4b6b3986ce9d6a2faee91f41b51dc620291c3804d7977f45e81857f8cea6",
      "transactionIndex": "0x49",
      "blockHash": "0xb94b9ed158e478422971cb0736665fe7b2a99dc7aeb09cb9f5f51ad1cb12cae5",
      "blockNumber": "0x8bc3ef",
      "gasUsed": "0x113fe",
      "effectiveGasPrice": "0x401afc",
      "from": "0x610d7b11fb07f9b142c392a3649aa50dc4c9a528",
      "to": "0x2246008845d7385a7c5c9dacea09a36823fbcb88",
      "contractAddress": null
    },
    {
      "status": "0x1",
      "cumulativeGasUsed": "0x731636",
      "logs": [
        {
          "address": "0x2246008845d7385a7c5c9dacea09a36823fbcb88",
          "topics": [
            "0x8c5be1e5ebec7d5bd14f71427d1e84f3dd0314c0f7b2291e5b200ac8c7c3b925",
            "0x000000000000000000000000610d7b11fb07f9b142c392a3649aa50dc4c9a528",
            "0x000000000000000000000000cc2149eeca0b6bb7228e7a651987ebb064276463"
          ],
          "data": "0x0000000000000000000000000000000000000000000000000000000077359400",
          "blockHash": "0xb94b9ed158e478422971cb0736665fe7b2a99dc7aeb09cb9f5f51ad1cb12cae5",
          "blockNumber": "0x8bc3ef",
          "blockTimestamp": "0x68beb934",
          "transactionHash": "0x6b669eaa72f2bd34a1a6fd3769c8e4e06358fb5abc50acf7eb1cd236d3a269ca",
          "transactionIndex": "0x4a",
          "logIndex": "0x3a",
          "removed": false
        }
      ],
      "logsBloom": "0x00000000000000000000000000000000000000000000000800000000001000000000000000000000001000000000000000000000000000000000000000200000200000000000000000000000000000000000000000000002000000000000000080000000000000000000000000000000000000400000000000000000000000000000000000000000000000000000000000000000000000000000000000000000020000000000000000000000000000000000000000000000000000000000000000000000000000000000000000000000000000000400000000000000000000000010000000001000000000000000000000000000000000000000000000000000",
      "type": "0x2",
      "transactionHash": "0x6b669eaa72f2bd34a1a6fd3769c8e4e06358fb5abc50acf7eb1cd236d3a269ca",
      "transactionIndex": "0x4a",
      "blockHash": "0xb94b9ed158e478422971cb0736665fe7b2a99dc7aeb09cb9f5f51ad1cb12cae5",
      "blockNumber": "0x8bc3ef",
      "gasUsed": "0xb4fa",
      "effectiveGasPrice": "0x401afc",
      "from": "0x610d7b11fb07f9b142c392a3649aa50dc4c9a528",
      "to": "0x2246008845d7385a7c5c9dacea09a36823fbcb88",
      "contractAddress": null
    },
    {
      "status": "0x1",
      "cumulativeGasUsed": "0x7a137d",
      "logs": [
        {
          "address": "0x2246008845d7385a7c5c9dacea09a36823fbcb88",
          "topics": [
            "0xddf252ad1be2c89b69c2b068fc378daa952ba7f163c4a11628f55a4df523b3ef",
            "0x000000000000000000000000610d7b11fb07f9b142c392a3649aa50dc4c9a528",
            "0x000000000000000000000000cc2149eeca0b6bb7228e7a651987ebb064276463"
          ],
          "data": "0x000000000000000000000000000000000000000000000000000000003b9aca00",
          "blockHash": "0xb94b9ed158e478422971cb0736665fe7b2a99dc7aeb09cb9f5f51ad1cb12cae5",
          "blockNumber": "0x8bc3ef",
          "blockTimestamp": "0x68beb934",
          "transactionHash": "0x73aee0727ec6598b524ce4555095a32030cbeb99f55171c3d05e78e63d9e10f0",
          "transactionIndex": "0x4b",
          "logIndex": "0x3b",
          "removed": false
        },
        {
          "address": "0xcc2149eeca0b6bb7228e7a651987ebb064276463",
          "topics": [
            "0x906969e50f050bb64df1fbdebaba959249f79c7ed4e322ecece97f4790efb568",
            "0xfa0b07dbae5b94f94fdb6632e967f8b0a45ae13401330acc8136e2226ff9c03a",
            "0x000000000000000000000000610d7b11fb07f9b142c392a3649aa50dc4c9a528",
            "0x000000000000000000000000597b049eee57889b5942d0ffac476ed78a9296ba"
          ],
          "data": "0x",
          "blockHash": "0xb94b9ed158e478422971cb0736665fe7b2a99dc7aeb09cb9f5f51ad1cb12cae5",
          "blockNumber": "0x8bc3ef",
          "blockTimestamp": "0x68beb934",
          "transactionHash": "0x73aee0727ec6598b524ce4555095a32030cbeb99f55171c3d05e78e63d9e10f0",
          "transactionIndex": "0x4b",
          "logIndex": "0x3c",
          "removed": false
        }
      ],
      "logsBloom": "0x00000000000000000000000000000000000000000000000800000000001000000200000000000000001000000000080000010000000000000000000000000000200000000000000000000008000200000000000000000002001000000000000080000000000000000000000000000000200000400000000000000010000040002000000000000000000000000000000000000000000000000000000000020008000000000000000000000000000000000000000000000000000000000000000000000002000000000000000000000000000000000400000000000000000000000000000000001000000000000000000000000020000000000010000000000000",
      "type": "0x2",
      "transactionHash": "0x73aee0727ec6598b524ce4555095a32030cbeb99f55171c3d05e78e63d9e10f0",
      "transactionIndex": "0x4b",
      "blockHash": "0xb94b9ed158e478422971cb0736665fe7b2a99dc7aeb09cb9f5f51ad1cb12cae5",
      "blockNumber": "0x8bc3ef",
      "gasUsed": "0x6fd47",
      "effectiveGasPrice": "0x401afc",
      "from": "0x610d7b11fb07f9b142c392a3649aa50dc4c9a528",
      "to": "0xcc2149eeca0b6bb7228e7a651987ebb064276463",
      "contractAddress": null
    },
    {
      "status": "0x1",
      "cumulativeGasUsed": "0x7f9dc2",
      "logs": [
        {
          "address": "0x2246008845d7385a7c5c9dacea09a36823fbcb88",
          "topics": [
            "0xddf252ad1be2c89b69c2b068fc378daa952ba7f163c4a11628f55a4df523b3ef",
            "0x000000000000000000000000610d7b11fb07f9b142c392a3649aa50dc4c9a528",
            "0x000000000000000000000000cc2149eeca0b6bb7228e7a651987ebb064276463"
          ],
          "data": "0x000000000000000000000000000000000000000000000000000000003b9aca00",
          "blockHash": "0xb94b9ed158e478422971cb0736665fe7b2a99dc7aeb09cb9f5f51ad1cb12cae5",
          "blockNumber": "0x8bc3ef",
          "blockTimestamp": "0x68beb934",
          "transactionHash": "0xced1f171e08a522da1c2aa7adb0f4454422014f9546486d0680c8cb6d4873a32",
          "transactionIndex": "0x4c",
          "logIndex": "0x3d",
          "removed": false
        },
        {
          "address": "0xcc2149eeca0b6bb7228e7a651987ebb064276463",
          "topics": [
            "0x906969e50f050bb64df1fbdebaba959249f79c7ed4e322ecece97f4790efb568",
            "0x26a678d40ec8f6ca430861af84b4a406fbef79ca2d522cf20e964aa1dc33bc6d",
            "0x000000000000000000000000610d7b11fb07f9b142c392a3649aa50dc4c9a528",
            "0x000000000000000000000000597b049eee57889b5942d0ffac476ed78a9296ba"
          ],
          "data": "0x",
          "blockHash": "0xb94b9ed158e478422971cb0736665fe7b2a99dc7aeb09cb9f5f51ad1cb12cae5",
          "blockNumber": "0x8bc3ef",
          "blockTimestamp": "0x68beb934",
          "transactionHash": "0xced1f171e08a522da1c2aa7adb0f4454422014f9546486d0680c8cb6d4873a32",
          "transactionIndex": "0x4c",
          "logIndex": "0x3e",
          "removed": false
        }
      ],
      "logsBloom": "0x00000000000000000000000000000010000000000040000800000000001000000200000000000000001000000000080000010000000000000000000000000000200000000000000000000008000200000000000000000002000000000000000080000000000000000000000000000000200000400000000000000010000040002000000000000000000000000000000000400000000000000000000000000008000000000000000000000000000000000000000000000000000000000000000000000002000000000000000000000000000000000400000000000000000000000000000000001000000000000000000000000000000000000010000000000000",
      "type": "0x2",
      "transactionHash": "0xced1f171e08a522da1c2aa7adb0f4454422014f9546486d0680c8cb6d4873a32",
      "transactionIndex": "0x4c",
      "blockHash": "0xb94b9ed158e478422971cb0736665fe7b2a99dc7aeb09cb9f5f51ad1cb12cae5",
      "blockNumber": "0x8bc3ef",
      "gasUsed": "0x58a45",
      "effectiveGasPrice": "0x401afc",
      "from": "0x610d7b11fb07f9b142c392a3649aa50dc4c9a528",
      "to": "0xcc2149eeca0b6bb7228e7a651987ebb064276463",
      "contractAddress": null
    }
  ],
  "libraries": [],
  "pending": [],
  "returns": {},
  "timestamp": 1757329719274,
  "chain": 11155111,
  "commit": "5ca50a1"
}