{
  "transactions": [
    {
      "hash": "0x8eef30135e93c9f8b6e0952a971cc65cee758271979a4278127a606ac2b2b8ad",
      "transactionType": "CALL",
      "contractName": "MockERC20",
      "contractAddress": "0x2246008845d7385a7c5c9dacea09a36823fbcb88",
      "function": "approve(address,uint256)",
      "arguments": [
        "0xcc2149eeca0B6Bb7228E7A651987ebB064276463",
        "2000000000"
      ],
      "transaction": {
        "from": "0xc29de8ad0a5d07aa5b51020883358bdf6b60ce2e",
        "to": "0x2246008845d7385a7c5c9dacea09a36823fbcb88",
        "gas": "0x108ad",
        "value": "0x0",
        "input": "0x095ea7b3000000000000000000000000cc2149eeca0b6bb7228e7a651987ebb0642764630000000000000000000000000000000000000000000000000000000077359400",
        "nonce": "0x7",
        "chainId": "0xaa36a7"
      },
      "additionalContracts": [],
      "isFixedGasLimit": false
    },
    {
      "hash": "0x6c1ecb7bb78a6cc78d21e6af305f921924cf53d893cdad001f11a7c463dc23ad",
      "transactionType": "CALL",
      "contractName": "StreamBoost",
      "contractAddress": "0xcc2149eeca0b6bb7228e7a651987ebb064276463",
      "function": "createStream(string,address,address,uint256,uint256,uint256)",
      "arguments": [
        "stream-no-cliff-20251003-1759488828",
        "0x26916f19bB4BA63687855c9b6CEfC9D621593e49",
        "0x2246008845d7385a7C5c9dacea09A36823FbcB88",
        "1000000000",
        "43200",
        "0"
      ],
      "transaction": {
        "from": "0xc29de8ad0a5d07aa5b51020883358bdf6b60ce2e",
        "to": "0xcc2149eeca0b6bb7228e7a651987ebb064276463",
        "gas": "0xc4892",
        "value": "0x0",
        "input": "0x3e2436d600000000000000000000000000000000000000000000000000000000000000c000000000000000000000000026916f19bb4ba63687855c9b6cefc9d621593e490000000000000000000000002246008845d7385a7c5c9dacea09a36823fbcb88000000000000000000000000000000000000000000000000000000003b9aca00000000000000000000000000000000000000000000000000000000000000a8c00000000000000000000000000000000000000000000000000000000000000000000000000000000000000000000000000000000000000000000000000000002373747265616d2d6e6f2d636c6966662d32303235313030332d313735393438383832380000000000000000000000000000000000000000000000000000000000",
        "nonce": "0x8",
        "chainId": "0xaa36a7"
      },
      "additionalContracts": [],
      "isFixedGasLimit": false
    },
    {
      "hash": "0x5389399d00bbaef1264b7163e2a1f3d0846edf1d405587831e1d20bab6766aac",
      "transactionType": "CALL",
      "contractName": "StreamBoost",
      "contractAddress": "0xcc2149eeca0b6bb7228e7a651987ebb064276463",
      "function": "createStream(string,address,address,uint256,uint256,uint256)",
      "arguments": [
        "stream-with-cliff-20251003-1759488828",
        "0x26916f19bB4BA63687855c9b6CEfC9D621593e49",
        "0x2246008845d7385a7C5c9dacea09A36823FbcB88",
        "1000000000",
        "43200",
        "17280"
      ],
      "transaction": {
        "from": "0xc29de8ad0a5d07aa5b51020883358bdf6b60ce2e",
        "to": "0xcc2149eeca0b6bb7228e7a651987ebb064276463",
        "gas": "0xc125b",
        "value": "0x0",
        "input": "0x3e2436d600000000000000000000000000000000000000000000000000000000000000c000000000000000000000000026916f19bb4ba63687855c9b6cefc9d621593e490000000000000000000000002246008845d7385a7c5c9dacea09a36823fbcb88000000000000000000000000000000000000000000000000000000003b9aca00000000000000000000000000000000000000000000000000000000000000a8c00000000000000000000000000000000000000000000000000000000000004380000000000000000000000000000000000000000000000000000000000000002573747265616d2d776974682d636c6966662d32303235313030332d31373539343838383238000000000000000000000000000000000000000000000000000000",
        "nonce": "0x9",
        "chainId": "0xaa36a7"
      },
      "additionalContracts": [],
      "isFixedGasLimit": false
    }
  ],
  "receipts": [
    {
      "status": "0x1",
      "cumulativeGasUsed": "0x13ac848",
      "logs": [
        {
          "address": "0x2246008845d7385a7c5c9dacea09a36823fbcb88",
          "topics": [
            "0x8c5be1e5ebec7d5bd14f71427d1e84f3dd0314c0f7b2291e5b200ac8c7c3b925",
            "0x000000000000000000000000c29de8ad0a5d07aa5b51020883358bdf6b60ce2e",
            "0x000000000000000000000000cc2149eeca0b6bb7228e7a651987ebb064276463"
          ],
          "data": "0x0000000000000000000000000000000000000000000000000000000077359400",
          "blockHash": "0xc525fd71b7cf326255b8c0271f526e5a77f43713f052c6f98cb0221bc2a1606d",
          "blockNumber": "0x8e6b0a",
          "blockTimestamp": "0x68dfab54",
          "transactionHash": "0x8eef30135e93c9f8b6e0952a971cc65cee758271979a4278127a606ac2b2b8ad",
          "transactionIndex": "0xee",
          "logIndex": "0x125",
          "removed": false
        }
      ],
      "logsBloom": "0x00000000020000000000000000000000000000000000000800000000001000000000000000000000000000000000000000000000000000000000000000200000200000000000000000000000000000000000000000000002000000000000000000000000000000000000000000000000000000400000000000000000000000000002000000000000000000000000000000000000000008000000000000000000020000000000000000000000000000000000000000000000000000000000000000000000000000000000000000000000000000000000000000000000000000000010000000001000000000000000000000000000000000000000000000000000",
      "type": "0x2",
      "transactionHash": "0x8eef30135e93c9f8b6e0952a971cc65cee758271979a4278127a606ac2b2b8ad",
      "transactionIndex": "0xee",
      "blockHash": "0xc525fd71b7cf326255b8c0271f526e5a77f43713f052c6f98cb0221bc2a1606d",
      "blockNumber": "0x8e6b0a",
      "gasUsed": "0xb4fa",
      "effectiveGasPrice": "0xf4252",
      "from": "0xc29de8ad0a5d07aa5b51020883358bdf6b60ce2e",
      "to": "0x2246008845d7385a7c5c9dacea09a36823fbcb88",
      "contractAddress": null
    },
    {
      "status": "0x1",
      "cumulativeGasUsed": "0x1432e6b",
      "logs": [
        {
          "address": "0x2246008845d7385a7c5c9dacea09a36823fbcb88",
          "topics": [
            "0xddf252ad1be2c89b69c2b068fc378daa952ba7f163c4a11628f55a4df523b3ef",
            "0x000000000000000000000000c29de8ad0a5d07aa5b51020883358bdf6b60ce2e",
            "0x000000000000000000000000cc2149eeca0b6bb7228e7a651987ebb064276463"
          ],
          "data": "0x000000000000000000000000000000000000000000000000000000003b9aca00",
          "blockHash": "0xc525fd71b7cf326255b8c0271f526e5a77f43713f052c6f98cb0221bc2a1606d",
          "blockNumber": "0x8e6b0a",
          "blockTimestamp": "0x68dfab54",
          "transactionHash": "0x6c1ecb7bb78a6cc78d21e6af305f921924cf53d893cdad001f11a7c463dc23ad",
          "transactionIndex": "0xef",
          "logIndex": "0x126",
          "removed": false
        },
        {
          "address": "0xcc2149eeca0b6bb7228e7a651987ebb064276463",
          "topics": [
            "0x906969e50f050bb64df1fbdebaba959249f79c7ed4e322ecece97f4790efb568",
            "0x2c0d70360e9335d6f78abe641d4c582d22ee70de1c3a22f62712f09a7e7836ec",
            "0x000000000000000000000000c29de8ad0a5d07aa5b51020883358bdf6b60ce2e",
            "0x00000000000000000000000026916f19bb4ba63687855c9b6cefc9d621593e49"
          ],
          "data": "0x",
          "blockHash": "0xc525fd71b7cf326255b8c0271f526e5a77f43713f052c6f98cb0221bc2a1606d",
          "blockNumber": "0x8e6b0a",
          "blockTimestamp": "0x68dfab54",
          "transactionHash": "0x6c1ecb7bb78a6cc78d21e6af305f921924cf53d893cdad001f11a7c463dc23ad",
          "transactionIndex": "0xef",
          "logIndex": "0x127",
          "removed": false
        }
      ],
      "logsBloom": "0x00000000020000000000000000000000000000000000000800000000001000000200000000000000000000000000080000010000000000000000000000000000200000000000000000000008000200000000000000000002000000000008000000000000000000000000000000000000000000400000000000000010000040000002000000000000000000010000000000000000000008000000002000000008000000000000000000000000000000000000000000040000000000000000000000000002000000000000000000000000000000000000000000200000000000000000000000001000000000000000000000000000001000000000000000000000",
      "type": "0x2",
      "transactionHash": "0x6c1ecb7bb78a6cc78d21e6af305f921924cf53d893cdad001f11a7c463dc23ad",
      "transactionIndex": "0xef",
      "blockHash": "0xc525fd71b7cf326255b8c0271f526e5a77f43713f052c6f98cb0221bc2a1606d",
      "blockNumber": "0x8e6b0a",
      "gasUsed": "0x86623",
      "effectiveGasPrice": "0xf4252",
      "from": "0xc29de8ad0a5d07aa5b51020883358bdf6b60ce2e",
      "to": "0xcc2149eeca0b6bb7228e7a651987ebb064276463",
      "contractAddress": null
    },
    {
      "status": "0x1",
      "cumulativeGasUsed": "0x14b6f7c",
      "logs": [
        {
          "address": "0x2246008845d7385a7c5c9dacea09a36823fbcb88",
          "topics": [
            "0xddf252ad1be2c89b69c2b068fc378daa952ba7f163c4a11628f55a4df523b3ef",
            "0x000000000000000000000000c29de8ad0a5d07aa5b51020883358bdf6b60ce2e",
            "0x000000000000000000000000cc2149eeca0b6bb7228e7a651987ebb064276463"
          ],
          "data": "0x000000000000000000000000000000000000000000000000000000003b9aca00",
          "blockHash": "0xc525fd71b7cf326255b8c0271f526e5a77f43713f052c6f98cb0221bc2a1606d",
          "blockNumber": "0x8e6b0a",
          "blockTimestamp": "0x68dfab54",
          "transactionHash": "0x5389399d00bbaef1264b7163e2a1f3d0846edf1d405587831e1d20bab6766aac",
          "transactionIndex": "0xf0",
          "logIndex": "0x128",
          "removed": false
        },
        {
          "address": "0xcc2149eeca0b6bb7228e7a651987ebb064276463",
          "topics": [
            "0x906969e50f050bb64df1fbdebaba959249f79c7ed4e322ecece97f4790efb568",
            "0x63d35ff2994794a814e6c544435b779beaf8f782fe60f90bf02a767de5a4d934",
            "0x000000000000000000000000c29de8ad0a5d07aa5b51020883358bdf6b60ce2e",
            "0x00000000000000000000000026916f19bb4ba63687855c9b6cefc9d621593e49"
          ],
          "data": "0x",
          "blockHash": "0xc525fd71b7cf326255b8c0271f526e5a77f43713f052c6f98cb0221bc2a1606d",
          "blockNumber": "0x8e6b0a",
          "blockTimestamp": "0x68dfab54",
          "transactionHash": "0x5389399d00bbaef1264b7163e2a1f3d0846edf1d405587831e1d20bab6766aac",
          "transactionIndex": "0xf0",
          "logIndex": "0x129",
          "removed": false
        }
      ],
      "logsBloom": "0x00000000020000000000000000000000000000000000000800000000001000000200000000000000020000000000080000010000000000000000000000000000200000000000010000000008000200000000000000000002000000000008000000000000000000000000000000000000000000400002000000000010000040000002000000000000000000010000000000000000000008000000000000000008000000000000000000000000000000000000000000000000000000000000000000000002000000000000000000000000000000000000000000200000000000000000000000001000000000000000000000000000000000000000000000000000",
      "type": "0x2",
      "transactionHash": "0x5389399d00bbaef1264b7163e2a1f3d0846edf1d405587831e1d20bab6766aac",
      "transactionIndex": "0xf0",
      "blockHash": "0xc525fd71b7cf326255b8c0271f526e5a77f43713f052c6f98cb0221bc2a1606d",
      "blockNumber": "0x8e6b0a",
      "gasUsed": "0x84111",
      "effectiveGasPrice": "0xf4252",
      "from": "0xc29de8ad0a5d07aa5b51020883358bdf6b60ce2e",
      "to": "0xcc2149eeca0b6bb7228e7a651987ebb064276463",
      "contractAddress": null
    }
  ],
  "libraries": [],
  "pending": [],
  "returns": {},
  "timestamp": 1759488855131,
  "chain": 11155111,
  "commit": "91c0d6c"
}