{
  "transactions": [
    {
      "hash": "0xf821c50265a6b18cc50f7e5c5876ba036528ef0305fa4bab4629c10f91ed66e4",
      "transactionType": "CALL",
      "contractName": "MockERC20",
      "contractAddress": "0x2246008845d7385a7c5c9dacea09a36823fbcb88",
      "function": "mint(address,uint256)",
      "arguments": [
        "0x610d7b11fB07F9B142c392a3649Aa50Dc4C9a528",
        "2000000000"
      ],
      "transaction": {
        "from": "0x610d7b11fb07f9b142c392a3649aa50dc4c9a528",
        "to": "0x2246008845d7385a7c5c9dacea09a36823fbcb88",
        "gas": "0x131f2",
        "value": "0x0",
        "input": "0x40c10f19000000000000000000000000610d7b11fb07f9b142c392a3649aa50dc4c9a5280000000000000000000000000000000000000000000000000000000077359400",
        "nonce": "0xe9",
        "chainId": "0xaa36a7"
      },
      "additionalContracts": [],
      "isFixedGasLimit": false
    },
    {
      "hash": "0xda19b9a4757d59ae89d5a3d35fd400ec1dbe6499a662fbadb083ef03ebd9c5f8",
      "transactionType": "CALL",
      "contractName": "MockERC20",
      "contractAddress": "0x2246008845d7385a7c5c9dacea09a36823fbcb88",
      "function": "approve(address,uint256)",
      "arguments": [
        "0xcc2149eeca0B6Bb7228E7A651987ebB064276463",
        "2000000000"
      ],
      "transaction": {
        "from": "0x610d7b11fb07f9b142c392a3649aa50dc4c9a528",
        "to": "0x2246008845d7385a7c5c9dacea09a36823fbcb88",
        "gas": "0x108ad",
        "value": "0x0",
        "input": "0x095ea7b3000000000000000000000000cc2149eeca0b6bb7228e7a651987ebb0642764630000000000000000000000000000000000000000000000000000000077359400",
        "nonce": "0xea",
        "chainId": "0xaa36a7"
      },
      "additionalContracts": [],
      "isFixedGasLimit": false
    },
    {
      "hash": "0x29e3db7069969d3305082ab54b900d8aa519d7c577ca9fdb2784eb9dbf438e43",
      "transactionType": "CALL",
      "contractName": "StreamBoost",
      "contractAddress": "0xcc2149eeca0b6bb7228e7a651987ebb064276463",
      "function": "createStream(string,address,address,uint256,uint256,uint256)",
      "arguments": [
        "stream-no-cliff-1759480896",
        "0x597b049EEe57889b5942d0fFAc476ED78A9296BA",
        "0x2246008845d7385a7C5c9dacea09A36823FbcB88",
        "1000000000",
        "172800",
        "0"
      ],
      "transaction": {
        "from": "0x610d7b11fb07f9b142c392a3649aa50dc4c9a528",
        "to": "0xcc2149eeca0b6bb7228e7a651987ebb064276463",
        "gas": "0x7ef27",
        "value": "0x0",
        "input": "0x3e2436d600000000000000000000000000000000000000000000000000000000000000c0000000000000000000000000597b049eee57889b5942d0ffac476ed78a9296ba0000000000000000000000002246008845d7385a7c5c9dacea09a36823fbcb88000000000000000000000000000000000000000000000000000000003b9aca00000000000000000000000000000000000000000000000000000000000002a3000000000000000000000000000000000000000000000000000000000000000000000000000000000000000000000000000000000000000000000000000000001a73747265616d2d6e6f2d636c6966662d31373539343830383936000000000000",
        "nonce": "0xeb",
        "chainId": "0xaa36a7"
      },
      "additionalContracts": [],
      "isFixedGasLimit": false
    },
    {
      "hash": "0x25ba6981bf3d6872876a3e1883ce7c127f631864b97761354bc82d57dddacf6c",
      "transactionType": "CALL",
      "contractName": "StreamBoost",
      "contractAddress": "0xcc2149eeca0b6bb7228e7a651987ebb064276463",
      "function": "createStream(string,address,address,uint256,uint256,uint256)",
      "arguments": [
        "stream-with-clif-1759480896",
        "0x597b049EEe57889b5942d0fFAc476ED78A9296BA",
        "0x2246008845d7385a7C5c9dacea09A36823FbcB88",
        "1000000000",
        "172800",
        "86400"
      ],
      "transaction": {
        "from": "0x610d7b11fb07f9b142c392a3649aa50dc4c9a528",
        "to": "0xcc2149eeca0b6bb7228e7a651987ebb064276463",
        "gas": "0x7a75e",
        "value": "0x0",
        "input": "0x3e2436d600000000000000000000000000000000000000000000000000000000000000c0000000000000000000000000597b049eee57889b5942d0ffac476ed78a9296ba0000000000000000000000002246008845d7385a7c5c9dacea09a36823fbcb88000000000000000000000000000000000000000000000000000000003b9aca00000000000000000000000000000000000000000000000000000000000002a3000000000000000000000000000000000000000000000000000000000000015180000000000000000000000000000000000000000000000000000000000000001b73747265616d2d776974682d636c69662d313735393438303839360000000000",
        "nonce": "0xec",
        "chainId": "0xaa36a7"
      },
      "additionalContracts": [],
      "isFixedGasLimit": false
    }
  ],
  "receipts": [
    {
      "status": "0x1",
      "cumulativeGasUsed": "0x7ca15b",
      "logs": [
        {
          "address": "0x2246008845d7385a7c5c9dacea09a36823fbcb88",
          "topics": [
            "0xddf252ad1be2c89b69c2b068fc378daa952ba7f163c4a11628f55a4df523b3ef",
            "0x0000000000000000000000000000000000000000000000000000000000000000",
            "0x000000000000000000000000610d7b11fb07f9b142c392a3649aa50dc4c9a528"
          ],
          "data": "0x0000000000000000000000000000000000000000000000000000000077359400",
          "blockHash": "0x34c21cb5922544d48ab958447a574b2e8537f586ae85bbca810def111908d387",
          "blockNumber": "0x8e687a",
          "blockTimestamp": "0x68df8c64",
          "transactionHash": "0xf821c50265a6b18cc50f7e5c5876ba036528ef0305fa4bab4629c10f91ed66e4",
          "transactionIndex": "0x5b",
          "logIndex": "0x6a",
          "removed": false
        }
      ],
      "logsBloom": "0x00000000000000000000000000000000000000000000000000000000001000000000000000000000001000000000000000000000000000000000000000000000200000000000000000000008000000000000000000000000000000000000000080000000020000000000000000000800000000000000000000000010000000000000000000000000000000000000000000000000000000000000000000000000000000000000000000000000000000000000000000000000000000000000000000000002000000000000000000000000000000000400000000000000000020000000000000001000000000000000000000000000000000000000000000000000",
      "type": "0x2",
      "transactionHash": "0xf821c50265a6b18cc50f7e5c5876ba036528ef0305fa4bab4629c10f91ed66e4",
      "transactionIndex": "0x5b",
      "blockHash": "0x34c21cb5922544d48ab958447a574b2e8537f586ae85bbca810def111908d387",
      "blockNumber": "0x8e687a",
      "gasUsed": "0xd132",
      "effectiveGasPrice": "0xf4257",
      "from": "0x610d7b11fb07f9b142c392a3649aa50dc4c9a528",
      "to": "0x2246008845d7385a7c5c9dacea09a36823fbcb88",
      "contractAddress": null
    },
    {
      "status": "0x1",
      "cumulativeGasUsed": "0x7d5655",
      "logs": [
        {
          "address": "0x2246008845d7385a7c5c9dacea09a36823fbcb88",
          "topics": [
            "0x8c5be1e5ebec7d5bd14f71427d1e84f3dd0314c0f7b2291e5b200ac8c7c3b925",
            "0x000000000000000000000000610d7b11fb07f9b142c392a3649aa50dc4c9a528",
            "0x000000000000000000000000cc2149eeca0b6bb7228e7a651987ebb064276463"
          ],
          "data": "0x0000000000000000000000000000000000000000000000000000000077359400",
          "blockHash": "0x34c21cb5922544d48ab958447a574b2e8537f586ae85bbca810def111908d387",
          "blockNumber": "0x8e687a",
          "blockTimestamp": "0x68df8c64",
          "transactionHash": "0xda19b9a4757d59ae89d5a3d35fd400ec1dbe6499a662fbadb083ef03ebd9c5f8",
          "transactionIndex": "0x5c",
          "logIndex": "0x6b",
          "removed": false
        }
      ],
      "logsBloom": "0x00000000000000000000000000000000000000000000000800000000001000000000000000000000001000000000000000000000000000000000000000200000200000000000000000000000000000000000000000000002000000000000000080000000000000000000000000000000000000400000000000000000000000000000000000000000000000000000000000000000000000000000000000000000020000000000000000000000000000000000000000000000000000000000000000000000000000000000000000000000000000000400000000000000000000000010000000001000000000000000000000000000000000000000000000000000",
      "type": "0x2",
      "transactionHash": "0xda19b9a4757d59ae89d5a3d35fd400ec1dbe6499a662fbadb083ef03ebd9c5f8",
      "transactionIndex": "0x5c",
      "blockHash": "0x34c21cb5922544d48ab958447a574b2e8537f586ae85bbca810def111908d387",
      "blockNumber": "0x8e687a",
      "gasUsed": "0xb4fa",
      "effectiveGasPrice": "0xf4257",
      "from": "0x610d7b11fb07f9b142c392a3649aa50dc4c9a528",
      "to": "0x2246008845d7385a7c5c9dacea09a36823fbcb88",
      "contractAddress": null
    },
    {
      "status": "0x1",
      "cumulativeGasUsed": "0x82c328",
      "logs": [
        {
          "address": "0x2246008845d7385a7c5c9dacea09a36823fbcb88",
          "topics": [
            "0xddf252ad1be2c89b69c2b068fc378daa952ba7f163c4a11628f55a4df523b3ef",
            "0x000000000000000000000000610d7b11fb07f9b142c392a3649aa50dc4c9a528",
            "0x000000000000000000000000cc2149eeca0b6bb7228e7a651987ebb064276463"
          ],
          "data": "0x000000000000000000000000000000000000000000000000000000003b9aca00",
          "blockHash": "0x34c21cb5922544d48ab958447a574b2e8537f586ae85bbca810def111908d387",
          "blockNumber": "0x8e687a",
          "blockTimestamp": "0x68df8c64",
          "transactionHash": "0x29e3db7069969d3305082ab54b900d8aa519d7c577ca9fdb2784eb9dbf438e43",
          "transactionIndex": "0x5d",
          "logIndex": "0x6c",
          "removed": false
        },
        {
          "address": "0xcc2149eeca0b6bb7228e7a651987ebb064276463",
          "topics": [
            "0x906969e50f050bb64df1fbdebaba959249f79c7ed4e322ecece97f4790efb568",
            "0x1088c86bd77e6aa38fc2d9d51496ac3b5011a3edfe509ca23d772e27b9d6be71",
            "0x000000000000000000000000610d7b11fb07f9b142c392a3649aa50dc4c9a528",
            "0x000000000000000000000000597b049eee57889b5942d0ffac476ed78a9296ba"
          ],
          "data": "0x",
          "blockHash": "0x34c21cb5922544d48ab958447a574b2e8537f586ae85bbca810def111908d387",
          "blockNumber": "0x8e687a",
          "blockTimestamp": "0x68df8c64",
          "transactionHash": "0x29e3db7069969d3305082ab54b900d8aa519d7c577ca9fdb2784eb9dbf438e43",
          "transactionIndex": "0x5d",
          "logIndex": "0x6d",
          "removed": false
        }
      ],
      "logsBloom": "0x00000000000000000000000000000000000000000000040800000000001000000200000000000000001000000000080000010000000000000000000000000000200002000000000000000008000200000000000000000002000000000000000080000000000000000001000000000000200000400000000000000010000040002000000000000000000000000000000000000000000000000000000000000008000000000000000000000000000000000000000000000000000000000000000000000002000000000000000000000000000000000400000000000000000000000000000000001000000000000000000000000000000000000010000000000000",
      "type": "0x2",
      "transactionHash": "0x29e3db7069969d3305082ab54b900d8aa519d7c577ca9fdb2784eb9dbf438e43",
      "transactionIndex": "0x5d",
      "blockHash": "0x34c21cb5922544d48ab958447a574b2e8537f586ae85bbca810def111908d387",
      "blockNumber": "0x8e687a",
      "gasUsed": "0x56cd3",
      "effectiveGasPrice": "0xf4257",
      "from": "0x610d7b11fb07f9b142c392a3649aa50dc4c9a528",
      "to": "0xcc2149eeca0b6bb7228e7a651987ebb064276463",
      "contractAddress": null
    },
    {
      "status": "0x1",
      "cumulativeGasUsed": "0x884db5",
      "logs": [
        {
          "address": "0x2246008845d7385a7c5c9dacea09a36823fbcb88",
          "topics": [
            "0xddf252ad1be2c89b69c2b068fc378daa952ba7f163c4a11628f55a4df523b3ef",
            "0x000000000000000000000000610d7b11fb07f9b142c392a3649aa50dc4c9a528",
            "0x000000000000000000000000cc2149eeca0b6bb7228e7a651987ebb064276463"
          ],
          "data": "0x000000000000000000000000000000000000000000000000000000003b9aca00",
          "blockHash": "0x34c21cb5922544d48ab958447a574b2e8537f586ae85bbca810def111908d387",
          "blockNumber": "0x8e687a",
          "blockTimestamp": "0x68df8c64",
          "transactionHash": "0x25ba6981bf3d6872876a3e1883ce7c127f631864b97761354bc82d57dddacf6c",
          "transactionIndex": "0x5e",
          "logIndex": "0x6e",
          "removed": false
        },
        {
          "address": "0xcc2149eeca0b6bb7228e7a651987ebb064276463",
          "topics": [
            "0x906969e50f050bb64df1fbdebaba959249f79c7ed4e322ecece97f4790efb568",
            "0xbc068b1518d47bb844592c15aaff906286bb6c6857637404779474a1841d1085",
            "0x000000000000000000000000610d7b11fb07f9b142c392a3649aa50dc4c9a528",
            "0x000000000000000000000000597b049eee57889b5942d0ffac476ed78a9296ba"
          ],
          "data": "0x",
          "blockHash": "0x34c21cb5922544d48ab958447a574b2e8537f586ae85bbca810def111908d387",
          "blockNumber": "0x8e687a",
          "blockTimestamp": "0x68df8c64",
          "transactionHash": "0x25ba6981bf3d6872876a3e1883ce7c127f631864b97761354bc82d57dddacf6c",
          "transactionIndex": "0x5e",
          "logIndex": "0x6f",
          "removed": false
        }
      ],
      "logsBloom": "0x00000000000000000000004000000000000000000000000800000000001000000200000000000000001000000000080000010000000000000000000000000000200000000000000000000008000200000000000000000002000000000000000280000000000000000000000000000000200000400080000000000010000040002000000000000000000000000000000000000000000000000000000000000008000000000000000000000000000000000000000000000000000000000000000000000002000000000000000000000000000000000400000000000000000000000000000000001000000000000000000000000000000000000010000000000000",
      "type": "0x2",
      "transactionHash": "0x25ba6981bf3d6872876a3e1883ce7c127f631864b97761354bc82d57dddacf6c",
      "transactionIndex": "0x5e",
      "blockHash": "0x34c21cb5922544d48ab958447a574b2e8537f586ae85bbca810def111908d387",
      "blockNumber": "0x8e687a",
      "gasUsed": "0x58a8d",
      "effectiveGasPrice": "0xf4257",
      "from": "0x610d7b11fb07f9b142c392a3649aa50dc4c9a528",
      "to": "0xcc2149eeca0b6bb7228e7a651987ebb064276463",
      "contractAddress": null
    }
  ],
  "libraries": [],
  "pending": [],
  "returns": {},
  "timestamp": 1759480934948,
  "chain": 11155111,
  "commit": "91c0d6c"
}