{
  "transactions": [
    {
      "hash": "0xb2aad19615939a043db5576fa555200b4672e5f57ee5ce35dfa274f96142beb5",
      "transactionType": "CALL",
      "contractName": "MockERC20",
      "contractAddress": "0x2246008845d7385a7c5c9dacea09a36823fbcb88",
      "function": "approve(address,uint256)",
      "arguments": [
        "0xcc2149eeca0B6Bb7228E7A651987ebB064276463",
        "2000000000"
      ],
      "transaction": {
        "from": "0xc29de8ad0a5d07aa5b51020883358bdf6b60ce2e",
        "to": "0x2246008845d7385a7c5c9dacea09a36823fbcb88",
        "gas": "0x108ad",
        "value": "0x0",
        "input": "0x095ea7b3000000000000000000000000cc2149eeca0b6bb7228e7a651987ebb0642764630000000000000000000000000000000000000000000000000000000077359400",
        "nonce": "0x0",
        "chainId": "0xaa36a7"
      },
      "additionalContracts": [],
      "isFixedGasLimit": false
    },
    {
      "hash": "0x878c79d10c73ee68f29d6dd5e31c6994b7c3945a10982f745b0a81e77ccc7f3d",
      "transactionType": "CALL",
      "contractName": "StreamBoost",
      "contractAddress": "0xcc2149eeca0b6bb7228e7a651987ebb064276463",
      "function": "createStream(string,address,address,uint256,uint256,uint256)",
      "arguments": [
        "stream-no-cliff-202510031759485252",
        "0x8E6A9D8CB283C3b18898A02B7a4490918629F275",
        "0x2246008845d7385a7C5c9dacea09A36823FbcB88",
        "1000000000",
        "172800",
        "0"
      ],
      "transaction": {
        "from": "0xc29de8ad0a5d07aa5b51020883358bdf6b60ce2e",
        "to": "0xcc2149eeca0b6bb7228e7a651987ebb064276463",
        "gas": "0xcaa31",
        "value": "0x0",
        "input": "0x3e2436d600000000000000000000000000000000000000000000000000000000000000c00000000000000000000000008e6a9d8cb283c3b18898a02b7a4490918629f2750000000000000000000000002246008845d7385a7c5c9dacea09a36823fbcb88000000000000000000000000000000000000000000000000000000003b9aca00000000000000000000000000000000000000000000000000000000000002a3000000000000000000000000000000000000000000000000000000000000000000000000000000000000000000000000000000000000000000000000000000002273747265616d2d6e6f2d636c6966662d323032353130303331373539343835323532000000000000000000000000000000000000000000000000000000000000",
        "nonce": "0x1",
        "chainId": "0xaa36a7"
      },
      "additionalContracts": [],
      "isFixedGasLimit": false
    },
    {
      "hash": "0xb13861e18d6f53b70fdb29528c255aa9bc0a9e1e3dafbfc8e7276a4c80cb867a",
      "transactionType": "CALL",
      "contractName": "StreamBoost",
      "contractAddress": "0xcc2149eeca0b6bb7228e7a651987ebb064276463",
      "function": "createStream(string,address,address,uint256,uint256,uint256)",
      "arguments": [
        "stream-with-cliff-202510031759485252",
        "0x8E6A9D8CB283C3b18898A02B7a4490918629F275",
        "0x2246008845d7385a7C5c9dacea09A36823FbcB88",
        "1000000000",
        "172800",
        "86400"
      ],
      "transaction": {
        "from": "0xc29de8ad0a5d07aa5b51020883358bdf6b60ce2e",
        "to": "0xcc2149eeca0b6bb7228e7a651987ebb064276463",
        "gas": "0xc125b",
        "value": "0x0",
        "input": "0x3e2436d600000000000000000000000000000000000000000000000000000000000000c00000000000000000000000008e6a9d8cb283c3b18898a02b7a4490918629f2750000000000000000000000002246008845d7385a7c5c9dacea09a36823fbcb88000000000000000000000000000000000000000000000000000000003b9aca00000000000000000000000000000000000000000000000000000000000002a3000000000000000000000000000000000000000000000000000000000000015180000000000000000000000000000000000000000000000000000000000000002473747265616d2d776974682d636c6966662d32303235313030333137353934383532353200000000000000000000000000000000000000000000000000000000",
        "nonce": "0x2",
        "chainId": "0xaa36a7"
      },
      "additionalContracts": [],
      "isFixedGasLimit": false
    }
  ],
  "receipts": [
    {
      "status": "0x1",
      "cumulativeGasUsed": "0x209aea3",
      "logs": [
        {
          "address": "0x2246008845d7385a7c5c9dacea09a36823fbcb88",
          "topics": [
            "0x8c5be1e5ebec7d5bd14f71427d1e84f3dd0314c0f7b2291e5b200ac8c7c3b925",
            "0x000000000000000000000000c29de8ad0a5d07aa5b51020883358bdf6b60ce2e",
            "0x000000000000000000000000cc2149eeca0b6bb7228e7a651987ebb064276463"
          ],
          "data": "0x0000000000000000000000000000000000000000000000000000000077359400",
          "blockHash": "0x0b20b069c8bd8bc6e89b205e839b1944abcf8f10fe64b893e9a1d08e2dc28a4d",
          "blockNumber": "0x8e69e3",
          "blockTimestamp": "0x68df9d68",
          "transactionHash": "0xb2aad19615939a043db5576fa555200b4672e5f57ee5ce35dfa274f96142beb5",
          "transactionIndex": "0x7e",
          "logIndex": "0x9a",
          "removed": false
        }
      ],
      "logsBloom": "0x00000000020000000000000000000000000000000000000800000000001000000000000000000000000000000000000000000000000000000000000000200000200000000000000000000000000000000000000000000002000000000000000000000000000000000000000000000000000000400000000000000000000000000002000000000000000000000000000000000000000008000000000000000000020000000000000000000000000000000000000000000000000000000000000000000000000000000000000000000000000000000000000000000000000000000010000000001000000000000000000000000000000000000000000000000000",
      "type": "0x2",
      "transactionHash": "0xb2aad19615939a043db5576fa555200b4672e5f57ee5ce35dfa274f96142beb5",
      "transactionIndex": "0x7e",
      "blockHash": "0x0b20b069c8bd8bc6e89b205e839b1944abcf8f10fe64b893e9a1d08e2dc28a4d",
      "blockNumber": "0x8e69e3",
      "gasUsed": "0xb4fa",
      "effectiveGasPrice": "0xf4250",
      "from": "0xc29de8ad0a5d07aa5b51020883358bdf6b60ce2e",
      "to": "0x2246008845d7385a7c5c9dacea09a36823fbcb88",
      "contractAddress": null
    },
    {
      "status": "0x1",
      "cumulativeGasUsed": "0x2125786",
      "logs": [
        {
          "address": "0x2246008845d7385a7c5c9dacea09a36823fbcb88",
          "topics": [
            "0xddf252ad1be2c89b69c2b068fc378daa952ba7f163c4a11628f55a4df523b3ef",
            "0x000000000000000000000000c29de8ad0a5d07aa5b51020883358bdf6b60ce2e",
            "0x000000000000000000000000cc2149eeca0b6bb7228e7a651987ebb064276463"
          ],
          "data": "0x000000000000000000000000000000000000000000000000000000003b9aca00",
          "blockHash": "0x0b20b069c8bd8bc6e89b205e839b1944abcf8f10fe64b893e9a1d08e2dc28a4d",
          "blockNumber": "0x8e69e3",
          "blockTimestamp": "0x68df9d68",
          "transactionHash": "0x878c79d10c73ee68f29d6dd5e31c6994b7c3945a10982f745b0a81e77ccc7f3d",
          "transactionIndex": "0x7f",
          "logIndex": "0x9b",
          "removed": false
        },
        {
          "address": "0xcc2149eeca0b6bb7228e7a651987ebb064276463",
          "topics": [
            "0x906969e50f050bb64df1fbdebaba959249f79c7ed4e322ecece97f4790efb568",
            "0x8689e64fd4799782f84a92ffb50a12ac56ec86469412ec6e223b2df2d319f124",
            "0x000000000000000000000000c29de8ad0a5d07aa5b51020883358bdf6b60ce2e",
            "0x0000000000000000000000008e6a9d8cb283c3b18898a02b7a4490918629f275"
          ],
          "data": "0x",
          "blockHash": "0x0b20b069c8bd8bc6e89b205e839b1944abcf8f10fe64b893e9a1d08e2dc28a4d",
          "blockNumber": "0x8e69e3",
          "blockTimestamp": "0x68df9d68",
          "transactionHash": "0x878c79d10c73ee68f29d6dd5e31c6994b7c3945a10982f745b0a81e77ccc7f3d",
          "transactionIndex": "0x7f",
          "logIndex": "0x9c",
          "removed": false
        }
      ],
      "logsBloom": "0x00000000020000000000000000000000000000000000000800000000001000000200000000000000000000000000080000010000000000000000000000000000200000000000000000000008000200000000000000000002000000000000000000000000000000000000000000000000000000400000000000000010008040000002000000000000000100000000000000000000000008000000000000000008000000000000000000000000008000000000000000000200000000000000000000000002000000000000000000000000100000000000000000008000000000000000000000001000000000000000000000000000000000000000000000000000",
      "type": "0x2",
      "transactionHash": "0x878c79d10c73ee68f29d6dd5e31c6994b7c3945a10982f745b0a81e77ccc7f3d",
      "transactionIndex": "0x7f",
      "blockHash": "0x0b20b069c8bd8bc6e89b205e839b1944abcf8f10fe64b893e9a1d08e2dc28a4d",
      "blockNumber": "0x8e69e3",
      "gasUsed": "0x8a8e3",
      "effectiveGasPrice": "0xf4250",
      "from": "0xc29de8ad0a5d07aa5b51020883358bdf6b60ce2e",
      "to": "0xcc2149eeca0b6bb7228e7a651987ebb064276463",
      "contractAddress": null
    },
    {
      "status": "0x1",
      "cumulativeGasUsed": "0x21b1995",
      "logs": [
        {
          "address": "0x2246008845d7385a7c5c9dacea09a36823fbcb88",
          "topics": [
            "0xddf252ad1be2c89b69c2b068fc378daa952ba7f163c4a11628f55a4df523b3ef",
            "0x000000000000000000000000c29de8ad0a5d07aa5b51020883358bdf6b60ce2e",
            "0x000000000000000000000000cc2149eeca0b6bb7228e7a651987ebb064276463"
          ],
          "data": "0x000000000000000000000000000000000000000000000000000000003b9aca00",
          "blockHash": "0x0b20b069c8bd8bc6e89b205e839b1944abcf8f10fe64b893e9a1d08e2dc28a4d",
          "blockNumber": "0x8e69e3",
          "blockTimestamp": "0x68df9d68",
          "transactionHash": "0xb13861e18d6f53b70fdb29528c255aa9bc0a9e1e3dafbfc8e7276a4c80cb867a",
          "transactionIndex": "0x81",
          "logIndex": "0x9e",
          "removed": false
        },
        {
          "address": "0xcc2149eeca0b6bb7228e7a651987ebb064276463",
          "topics": [
            "0x906969e50f050bb64df1fbdebaba959249f79c7ed4e322ecece97f4790efb568",
            "0xbdad8f68a8e8ce0a0268d1365d911e58d9c710b2f89df51580fbd4503f9eca1e",
            "0x000000000000000000000000c29de8ad0a5d07aa5b51020883358bdf6b60ce2e",
            "0x0000000000000000000000008e6a9d8cb283c3b18898a02b7a4490918629f275"
          ],
          "data": "0x",
          "blockHash": "0x0b20b069c8bd8bc6e89b205e839b1944abcf8f10fe64b893e9a1d08e2dc28a4d",
          "blockNumber": "0x8e69e3",
          "blockTimestamp": "0x68df9d68",
          "transactionHash": "0xb13861e18d6f53b70fdb29528c255aa9bc0a9e1e3dafbfc8e7276a4c80cb867a",
          "transactionIndex": "0x81",
          "logIndex": "0x9f",
          "removed": false
        }
      ],
      "logsBloom": "0x00200080020000000000000000000000000000000000000800000000001000000200000000000000000000000000080000010000000000000000000000000000200000000000000000000008000200000000000000000002000000000000000000000000000000000000000000000000000000400000000000000010008040000002000000000000000000000000000000000000000008000000000000000008000000000000000000000000000000000000000000000200000000000000000000000002000000000000000000000000000000000000000000008000000000000000000000001000000000000000000400000000000000000000000000000000",
      "type": "0x2",
      "transactionHash": "0xb13861e18d6f53b70fdb29528c255aa9bc0a9e1e3dafbfc8e7276a4c80cb867a",
      "transactionIndex": "0x81",
      "blockHash": "0x0b20b069c8bd8bc6e89b205e839b1944abcf8f10fe64b893e9a1d08e2dc28a4d",
      "blockNumber": "0x8e69e3",
      "gasUsed": "0x84111",
      "effectiveGasPrice": "0xf4250",
      "from": "0xc29de8ad0a5d07aa5b51020883358bdf6b60ce2e",
      "to": "0xcc2149eeca0b6bb7228e7a651987ebb064276463",
      "contractAddress": null
    }
  ],
  "libraries": [],
  "pending": [],
  "returns": {},
  "timestamp": 1759485288854,
  "chain": 11155111,
  "commit": "91c0d6c"
}