{
  "transactions": [
    {
      "hash": "0x84dede9032996bb301889539ca1669d70cf982a27746031b25d9aa5cdf5990e0",
      "transactionType": "CALL",
      "contractName": "MockERC20",
      "contractAddress": "0x2246008845d7385a7c5c9dacea09a36823fbcb88",
      "function": "mint(address,uint256)",
      "arguments": [
        "0x610d7b11fB07F9B142c392a3649Aa50Dc4C9a528",
        "2000000000"
      ],
      "transaction": {
        "from": "0x610d7b11fb07f9b142c392a3649aa50dc4c9a528",
        "to": "0x2246008845d7385a7c5c9dacea09a36823fbcb88",
        "gas": "0x131f2",
        "value": "0x0",
        "input": "0x40c10f19000000000000000000000000610d7b11fb07f9b142c392a3649aa50dc4c9a5280000000000000000000000000000000000000000000000000000000077359400",
        "nonce": "0xed",
        "chainId": "0xaa36a7"
      },
      "additionalContracts": [],
      "isFixedGasLimit": false
    },
    {
      "hash": "0x150187689a132c12ae19d8986eb2817538d5d090ae5425c4027af7024729e2d6",
      "transactionType": "CALL",
      "contractName": "MockERC20",
      "contractAddress": "0x2246008845d7385a7c5c9dacea09a36823fbcb88",
      "function": "approve(address,uint256)",
      "arguments": [
        "0xcc2149eeca0B6Bb7228E7A651987ebB064276463",
        "2000000000"
      ],
      "transaction": {
        "from": "0x610d7b11fb07f9b142c392a3649aa50dc4c9a528",
        "to": "0x2246008845d7385a7c5c9dacea09a36823fbcb88",
        "gas": "0x108ad",
        "value": "0x0",
        "input": "0x095ea7b3000000000000000000000000cc2149eeca0b6bb7228e7a651987ebb0642764630000000000000000000000000000000000000000000000000000000077359400",
        "nonce": "0xee",
        "chainId": "0xaa36a7"
      },
      "additionalContracts": [],
      "isFixedGasLimit": false
    },
    {
      "hash": "0x60a59092509de206533dbbf7894e9f79c3650bcff620a1db5ed5f7deed416be4",
      "transactionType": "CALL",
      "contractName": "StreamBoost",
      "contractAddress": "0xcc2149eeca0b6bb7228e7a651987ebb064276463",
      "function": "createStream(string,address,address,uint256,uint256,uint256)",
      "arguments": [
        "stream-no-cliff-001-20251003",
        "0x597b049EEe57889b5942d0fFAc476ED78A9296BA",
        "0x2246008845d7385a7C5c9dacea09A36823FbcB88",
        "1000000000",
        "172800",
        "0"
      ],
      "transaction": {
        "from": "0x610d7b11fb07f9b142c392a3649aa50dc4c9a528",
        "to": "0xcc2149eeca0b6bb7228e7a651987ebb064276463",
        "gas": "0x7ef4a",
        "value": "0x0",
        "input": "0x3e2436d600000000000000000000000000000000000000000000000000000000000000c0000000000000000000000000597b049eee57889b5942d0ffac476ed78a9296ba0000000000000000000000002246008845d7385a7c5c9dacea09a36823fbcb88000000000000000000000000000000000000000000000000000000003b9aca00000000000000000000000000000000000000000000000000000000000002a3000000000000000000000000000000000000000000000000000000000000000000000000000000000000000000000000000000000000000000000000000000001c73747265616d2d6e6f2d636c6966662d3030312d323032353130303300000000",
        "nonce": "0xef",
        "chainId": "0xaa36a7"
      },
      "additionalContracts": [],
      "isFixedGasLimit": false
    },
    {
      "hash": "0xafabacdd67cb74307466c556cd69e25488f0599cffeaed9719e811b6fc98d8ba",
      "transactionType": "CALL",
      "contractName": "StreamBoost",
      "contractAddress": "0xcc2149eeca0b6bb7228e7a651987ebb064276463",
      "function": "createStream(string,address,address,uint256,uint256,uint256)",
      "arguments": [
        "stream-with-clif-1759481316",
        "0x597b049EEe57889b5942d0fFAc476ED78A9296BA",
        "0x2246008845d7385a7C5c9dacea09A36823FbcB88",
        "1000000000",
        "172800",
        "86400"
      ],
      "transaction": {
        "from": "0x610d7b11fb07f9b142c392a3649aa50dc4c9a528",
        "to": "0xcc2149eeca0b6bb7228e7a651987ebb064276463",
        "gas": "0x7a75e",
        "value": "0x0",
        "input": "0x3e2436d600000000000000000000000000000000000000000000000000000000000000c0000000000000000000000000597b049eee57889b5942d0ffac476ed78a9296ba0000000000000000000000002246008845d7385a7c5c9dacea09a36823fbcb88000000000000000000000000000000000000000000000000000000003b9aca00000000000000000000000000000000000000000000000000000000000002a3000000000000000000000000000000000000000000000000000000000000015180000000000000000000000000000000000000000000000000000000000000001b73747265616d2d776974682d636c69662d313735393438313331360000000000",
        "nonce": "0xf0",
        "chainId": "0xaa36a7"
      },
      "additionalContracts": [],
      "isFixedGasLimit": false
    }
  ],
  "receipts": [
    {
      "status": "0x1",
      "cumulativeGasUsed": "0x129d5e4",
      "logs": [
        {
          "address": "0x2246008845d7385a7c5c9dacea09a36823fbcb88",
          "topics": [
            "0xddf252ad1be2c89b69c2b068fc378daa952ba7f163c4a11628f55a4df523b3ef",
            "0x0000000000000000000000000000000000000000000000000000000000000000",
            "0x000000000000000000000000610d7b11fb07f9b142c392a3649aa50dc4c9a528"
          ],
          "data": "0x0000000000000000000000000000000000000000000000000000000077359400",
          "blockHash": "0x29f4e76a02f04be5e1157a15a0f4e5d0e9aab81002042352fd47bff5dd3a5091",
          "blockNumber": "0x8e689d",
          "blockTimestamp": "0x68df8e08",
          "transactionHash": "0x84dede9032996bb301889539ca1669d70cf982a27746031b25d9aa5cdf5990e0",
          "transactionIndex": "0x81",
          "logIndex": "0xe9",
          "removed": false
        }
      ],
      "logsBloom": "0x00000000000000000000000000000000000000000000000000000000001000000000000000000000001000000000000000000000000000000000000000000000200000000000000000000008000000000000000000000000000000000000000080000000020000000000000000000800000000000000000000000010000000000000000000000000000000000000000000000000000000000000000000000000000000000000000000000000000000000000000000000000000000000000000000000002000000000000000000000000000000000400000000000000000020000000000000001000000000000000000000000000000000000000000000000000",
      "type": "0x2",
      "transactionHash": "0x84dede9032996bb301889539ca1669d70cf982a27746031b25d9aa5cdf5990e0",
      "transactionIndex": "0x81",
      "blockHash": "0x29f4e76a02f04be5e1157a15a0f4e5d0e9aab81002042352fd47bff5dd3a5091",
      "blockNumber": "0x8e689d",
      "gasUsed": "0xd132",
      "effectiveGasPrice": "0xf4253",
      "from": "0x610d7b11fb07f9b142c392a3649aa50dc4c9a528",
      "to": "0x2246008845d7385a7c5c9dacea09a36823fbcb88",
      "contractAddress": null
    },
    {
      "status": "0x1",
      "cumulativeGasUsed": "0x12cc79a",
      "logs": [
        {
          "address": "0x2246008845d7385a7c5c9dacea09a36823fbcb88",
          "topics": [
            "0x8c5be1e5ebec7d5bd14f71427d1e84f3dd0314c0f7b2291e5b200ac8c7c3b925",
            "0x000000000000000000000000610d7b11fb07f9b142c392a3649aa50dc4c9a528",
            "0x000000000000000000000000cc2149eeca0b6bb7228e7a651987ebb064276463"
          ],
          "data": "0x0000000000000000000000000000000000000000000000000000000077359400",
          "blockHash": "0x29f4e76a02f04be5e1157a15a0f4e5d0e9aab81002042352fd47bff5dd3a5091",
          "blockNumber": "0x8e689d",
          "blockTimestamp": "0x68df8e08",
          "transactionHash": "0x150187689a132c12ae19d8986eb2817538d5d090ae5425c4027af7024729e2d6",
          "transactionIndex": "0x85",
          "logIndex": "0xee",
          "removed": false
        }
      ],
      "logsBloom": "0x00000000000000000000000000000000000000000000000800000000001000000000000000000000001000000000000000000000000000000000000000200000200000000000000000000000000000000000000000000002000000000000000080000000000000000000000000000000000000400000000000000000000000000000000000000000000000000000000000000000000000000000000000000000020000000000000000000000000000000000000000000000000000000000000000000000000000000000000000000000000000000400000000000000000000000010000000001000000000000000000000000000000000000000000000000000",
      "type": "0x2",
      "transactionHash": "0x150187689a132c12ae19d8986eb2817538d5d090ae5425c4027af7024729e2d6",
      "transactionIndex": "0x85",
      "blockHash": "0x29f4e76a02f04be5e1157a15a0f4e5d0e9aab81002042352fd47bff5dd3a5091",
      "blockNumber": "0x8e689d",
      "gasUsed": "0xb4fa",
      "effectiveGasPrice": "0xf4253",
      "from": "0x610d7b11fb07f9b142c392a3649aa50dc4c9a528",
      "to": "0x2246008845d7385a7c5c9dacea09a36823fbcb88",
      "contractAddress": null
    },
    {
      "status": "0x1",
      "cumulativeGasUsed": "0x1323485",
      "logs": [
        {
          "address": "0x2246008845d7385a7c5c9dacea09a36823fbcb88",
          "topics": [
            "0xddf252ad1be2c89b69c2b068fc378daa952ba7f163c4a11628f55a4df523b3ef",
            "0x000000000000000000000000610d7b11fb07f9b142c392a3649aa50dc4c9a528",
            "0x000000000000000000000000cc2149eeca0b6bb7228e7a651987ebb064276463"
          ],
          "data": "0x000000000000000000000000000000000000000000000000000000003b9aca00",
          "blockHash": "0x29f4e76a02f04be5e1157a15a0f4e5d0e9aab81002042352fd47bff5dd3a5091",
          "blockNumber": "0x8e689d",
          "blockTimestamp": "0x68df8e08",
          "transactionHash": "0x60a59092509de206533dbbf7894e9f79c3650bcff620a1db5ed5f7deed416be4",
          "transactionIndex": "0x86",
          "logIndex": "0xef",
          "removed": false
        },
        {
          "address": "0xcc2149eeca0b6bb7228e7a651987ebb064276463",
          "topics": [
            "0x906969e50f050bb64df1fbdebaba959249f79c7ed4e322ecece97f4790efb568",
            "0x441ebcf5a5460eb191f68f7b3bbcbadc096a5701f9058e850a4026e1773d0b65",
            "0x000000000000000000000000610d7b11fb07f9b142c392a3649aa50dc4c9a528",
            "0x000000000000000000000000597b049eee57889b5942d0ffac476ed78a9296ba"
          ],
          "data": "0x",
          "blockHash": "0x29f4e76a02f04be5e1157a15a0f4e5d0e9aab81002042352fd47bff5dd3a5091",
          "blockNumber": "0x8e689d",
          "blockTimestamp": "0x68df8e08",
          "transactionHash": "0x60a59092509de206533dbbf7894e9f79c3650bcff620a1db5ed5f7deed416be4",
          "transactionIndex": "0x86",
          "logIndex": "0xf0",
          "removed": false
        }
      ],
      "logsBloom": "0x00000000000000000000000000000000000000000000000800000000001000000200000000000000001000100000080000010000000000000000000000000000200000000000000000000008000200000000000000000002000000000000000080000000000000000000000000000000200000400000000000000010000040002000000000000000000000000000000000000000000000000000000000000008000000000000000000000000000000000000000000000000000000000000000000000002000000000000000000000000010000000400000000000000000000000000000000001000000000008000000000000000000000000010000000000000",
      "type": "0x2",
      "transactionHash": "0x60a59092509de206533dbbf7894e9f79c3650bcff620a1db5ed5f7deed416be4",
      "transactionIndex": "0x86",
      "blockHash": "0x29f4e76a02f04be5e1157a15a0f4e5d0e9aab81002042352fd47bff5dd3a5091",
      "blockNumber": "0x8e689d",
      "gasUsed": "0x56ceb",
      "effectiveGasPrice": "0xf4253",
      "from": "0x610d7b11fb07f9b142c392a3649aa50dc4c9a528",
      "to": "0xcc2149eeca0b6bb7228e7a651987ebb064276463",
      "contractAddress": null
    },
    {
      "status": "0x1",
      "cumulativeGasUsed": "0x137bf12",
      "logs": [
        {
          "address": "0x2246008845d7385a7c5c9dacea09a36823fbcb88",
          "topics": [
            "0xddf252ad1be2c89b69c2b068fc378daa952ba7f163c4a11628f55a4df523b3ef",
            "0x000000000000000000000000610d7b11fb07f9b142c392a3649aa50dc4c9a528",
            "0x000000000000000000000000cc2149eeca0b6bb7228e7a651987ebb064276463"
          ],
          "data": "0x000000000000000000000000000000000000000000000000000000003b9aca00",
          "blockHash": "0x29f4e76a02f04be5e1157a15a0f4e5d0e9aab81002042352fd47bff5dd3a5091",
          "blockNumber": "0x8e689d",
          "blockTimestamp": "0x68df8e08",
          "transactionHash": "0xafabacdd67cb74307466c556cd69e25488f0599cffeaed9719e811b6fc98d8ba",
          "transactionIndex": "0x87",
          "logIndex": "0xf1",
          "removed": false
        },
        {
          "address": "0xcc2149eeca0b6bb7228e7a651987ebb064276463",
          "topics": [
            "0x906969e50f050bb64df1fbdebaba959249f79c7ed4e322ecece97f4790efb568",
            "0xd30a3574de31d099c61b94c2f8554eaf88eceb94f8add6a29c607007e4c77986",
            "0x000000000000000000000000610d7b11fb07f9b142c392a3649aa50dc4c9a528",
            "0x000000000000000000000000597b049eee57889b5942d0ffac476ed78a9296ba"
          ],
          "data": "0x",
          "blockHash": "0x29f4e76a02f04be5e1157a15a0f4e5d0e9aab81002042352fd47bff5dd3a5091",
          "blockNumber": "0x8e689d",
          "blockTimestamp": "0x68df8e08",
          "transactionHash": "0xafabacdd67cb74307466c556cd69e25488f0599cffeaed9719e811b6fc98d8ba",
          "transactionIndex": "0x87",
          "logIndex": "0xf2",
          "removed": false
        }
      ],
      "logsBloom": "0x00000000000000000000000000000000000000000000000800000000001000000200000000000000001000000000080000010000040000000000000000000000200000000000000000000008000200000000000000000002000000000000000080000000000000000000000000000000200000400000000000000010000040002000000000000000001000000000000000000000000000000000000000000008000000000000000020000000000000000000000000000000000000000000000000000002000000000000000000000000000000000400000000000000000000000000000000001000000000000000000000000000000000000010000000000000",
      "type": "0x2",
      "transactionHash": "0xafabacdd67cb74307466c556cd69e25488f0599cffeaed9719e811b6fc98d8ba",
      "transactionIndex": "0x87",
      "blockHash": "0x29f4e76a02f04be5e1157a15a0f4e5d0e9aab81002042352fd47bff5dd3a5091",
      "blockNumber": "0x8e689d",
      "gasUsed": "0x58a8d",
      "effectiveGasPrice": "0xf4253",
      "from": "0x610d7b11fb07f9b142c392a3649aa50dc4c9a528",
      "to": "0xcc2149eeca0b6bb7228e7a651987ebb064276463",
      "contractAddress": null
    }
  ],
  "libraries": [],
  "pending": [],
  "returns": {},
  "timestamp": 1759481353309,
  "chain": 11155111,
  "commit": "91c0d6c"
}